{
  "contractName": "Dex",
  "abi": [
    {
      "inputs": [
        {
          "internalType": "address",
          "name": "_DFSTokenA",
          "type": "address"
        }
      ],
      "stateMutability": "nonpayable",
      "type": "constructor"
    },
    {
      "anonymous": false,
      "inputs": [
        {
          "indexed": true,
          "internalType": "address",
          "name": "user",
          "type": "address"
        },
        {
          "indexed": true,
          "internalType": "uint256",
          "name": "pid",
          "type": "uint256"
        },
        {
          "indexed": false,
          "internalType": "uint256",
          "name": "amount",
          "type": "uint256"
        }
      ],
      "name": "Deposit",
      "type": "event"
    },
    {
      "anonymous": false,
      "inputs": [
        {
          "indexed": true,
          "internalType": "address",
          "name": "_addressToken1",
          "type": "address"
        },
        {
          "indexed": true,
          "internalType": "address",
          "name": "_addressToken2",
          "type": "address"
        },
        {
          "indexed": true,
          "internalType": "address",
          "name": "_addressLiquidityPool",
          "type": "address"
        }
      ],
      "name": "LiquidityPoolCreted",
      "type": "event"
    },
    {
      "anonymous": false,
      "inputs": [
        {
          "indexed": true,
          "internalType": "address",
          "name": "user",
          "type": "address"
        },
        {
          "indexed": true,
          "internalType": "uint256",
          "name": "pid",
          "type": "uint256"
        },
        {
          "indexed": false,
          "internalType": "uint256",
          "name": "amount",
          "type": "uint256"
        }
      ],
      "name": "Withdraw",
      "type": "event"
    },
    {
      "inputs": [
        {
          "internalType": "address",
          "name": "",
          "type": "address"
        },
        {
          "internalType": "address",
          "name": "",
          "type": "address"
        }
      ],
      "name": "getLiquidityPool",
      "outputs": [
        {
          "internalType": "address",
          "name": "",
          "type": "address"
        }
      ],
      "stateMutability": "view",
      "type": "function"
    },
    {
      "inputs": [],
      "name": "owner",
      "outputs": [
        {
          "internalType": "address",
          "name": "",
          "type": "address"
        }
      ],
      "stateMutability": "view",
      "type": "function"
    },
    {
      "inputs": [
        {
          "internalType": "uint256",
          "name": "",
          "type": "uint256"
        }
      ],
      "name": "poolInfo",
      "outputs": [
        {
          "internalType": "contract IERC20",
          "name": "lpToken",
          "type": "address"
        }
      ],
      "stateMutability": "view",
      "type": "function"
    },
    {
      "inputs": [
        {
          "internalType": "uint256",
          "name": "",
          "type": "uint256"
        },
        {
          "internalType": "address",
          "name": "",
          "type": "address"
        }
      ],
      "name": "userInfo",
      "outputs": [
        {
          "internalType": "uint256",
          "name": "amount",
          "type": "uint256"
        }
      ],
      "stateMutability": "view",
      "type": "function"
    },
    {
      "inputs": [
        {
          "internalType": "address",
          "name": "_tokenA",
          "type": "address"
        },
        {
          "internalType": "address",
          "name": "_tokenB",
          "type": "address"
        }
      ],
      "name": "createLiquidityPool",
      "outputs": [],
      "stateMutability": "nonpayable",
      "type": "function"
    },
    {
      "inputs": [
        {
          "internalType": "uint256",
          "name": "_pid",
          "type": "uint256"
        },
        {
          "internalType": "uint256",
          "name": "_amount",
          "type": "uint256"
        }
      ],
      "name": "deposit",
      "outputs": [],
      "stateMutability": "nonpayable",
      "type": "function"
    },
    {
      "inputs": [
        {
          "internalType": "uint256",
          "name": "_pid",
          "type": "uint256"
        }
      ],
      "name": "getLPBalance",
      "outputs": [
        {
          "internalType": "uint256",
          "name": "",
          "type": "uint256"
        }
      ],
      "stateMutability": "view",
      "type": "function"
    },
    {
      "inputs": [
        {
          "internalType": "uint256",
          "name": "_pid",
          "type": "uint256"
        },
        {
          "internalType": "uint256",
          "name": "_amount",
          "type": "uint256"
        }
      ],
      "name": "withdraw",
      "outputs": [],
      "stateMutability": "nonpayable",
      "type": "function"
    },
    {
      "inputs": [],
      "name": "getpoolInfo",
      "outputs": [
        {
          "components": [
            {
              "internalType": "contract IERC20",
              "name": "lpToken",
              "type": "address"
            }
          ],
          "internalType": "struct Dex.PoolInfo[]",
          "name": "",
          "type": "tuple[]"
        }
      ],
      "stateMutability": "view",
      "type": "function"
    },
    {
      "inputs": [
        {
          "internalType": "address",
          "name": "poolCA",
          "type": "address"
        }
      ],
      "name": "getPid",
      "outputs": [
        {
          "internalType": "uint256",
          "name": "",
          "type": "uint256"
        }
      ],
      "stateMutability": "view",
      "type": "function"
    }
  ],
  "bytecode": "0x60c06040523480156200001157600080fd5b50604051620051f5380380620051f5833981810160405281019062000037919062000110565b3373ffffffffffffffffffffffffffffffffffffffff1660a08173ffffffffffffffffffffffffffffffffffffffff16815250508073ffffffffffffffffffffffffffffffffffffffff1660808173ffffffffffffffffffffffffffffffffffffffff16815250505062000142565b600080fd5b600073ffffffffffffffffffffffffffffffffffffffff82169050919050565b6000620000d882620000ab565b9050919050565b620000ea81620000cb565b8114620000f657600080fd5b50565b6000815190506200010a81620000df565b92915050565b600060208284031215620001295762000128620000a6565b5b60006200013984828501620000f9565b91505092915050565b60805160a05161508d620001686000396000610ab40152600061055b015261508d6000f3fe60806040523480156200001157600080fd5b5060043610620000ac5760003560e01c806393f1a40b116200006f57806393f1a40b146200017f578063cc1162e014620001b5578063e2bbb15814620001d7578063f4f31ede14620001f7578063fd5cf2b0146200022d57620000ac565b80631526fe2714620000b15780632384d3d014620000e757806343b55f351462000107578063441a3e70146200013d5780638da5cb5b146200015d575b600080fd5b620000cf6004803603810190620000c9919062000e71565b62000263565b604051620000de919062000f2e565b60405180910390f35b620001056004803603810190620000ff919062000f90565b620002ae565b005b6200012560048036038101906200011f919062000fd7565b6200081a565b6040516200013491906200101a565b60405180910390f35b6200015b600480360381019062000155919062001037565b620008cf565b005b6200016762000ab2565b6040516200017691906200108f565b60405180910390f35b6200019d6004803603810190620001979190620010ac565b62000ad6565b604051620001ac91906200101a565b60405180910390f35b620001bf62000b01565b604051620001ce9190620011df565b60405180910390f35b620001f56004803603810190620001ef919062001037565b62000bb4565b005b6200021560048036038101906200020f919062000f90565b62000d4f565b6040516200022491906200108f565b60405180910390f35b6200024b600480360381019062000245919062000e71565b62000d91565b6040516200025a91906200101a565b60405180910390f35b600281815481106200027457600080fd5b906000526020600020016000915090508060000160009054906101000a900473ffffffffffffffffffffffffffffffffffffffff16905081565b6000808273ffffffffffffffffffffffffffffffffffffffff168473ffffffffffffffffffffffffffffffffffffffff1610620002ed578284620002f0565b83835b915091508073ffffffffffffffffffffffffffffffffffffffff168273ffffffffffffffffffffffffffffffffffffffff160362000365576040517f08c379a00000000000000000000000000000000000000000000000000000000081526004016200035c9062001264565b60405180910390fd5b600073ffffffffffffffffffffffffffffffffffffffff168273ffffffffffffffffffffffffffffffffffffffff1603620003d7576040517f08c379a0000000000000000000000000000000000000000000000000000000008152600401620003ce90620012d6565b60405180910390fd5b600073ffffffffffffffffffffffffffffffffffffffff168173ffffffffffffffffffffffffffffffffffffffff160362000449576040517f08c379a00000000000000000000000000000000000000000000000000000000081526004016200044090620012d6565b60405180910390fd5b600073ffffffffffffffffffffffffffffffffffffffff16600360008473ffffffffffffffffffffffffffffffffffffffff1673ffffffffffffffffffffffffffffffffffffffff16815260200190815260200160002060008373ffffffffffffffffffffffffffffffffffffffff1673ffffffffffffffffffffffffffffffffffffffff16815260200190815260200160002060009054906101000a900473ffffffffffffffffffffffffffffffffffffffff1673ffffffffffffffffffffffffffffffffffffffff161462000557576040517f08c379a00000000000000000000000000000000000000000000000000000000081526004016200054e9062001348565b60405180910390fd5b81817f0000000000000000000000000000000000000000000000000000000000000000604051620005889062000e23565b6200059693929190620013ba565b604051809103906000f080158015620005b3573d6000803e3d6000fd5b506000806101000a81548173ffffffffffffffffffffffffffffffffffffffff021916908373ffffffffffffffffffffffffffffffffffffffff16021790555060008054906101000a900473ffffffffffffffffffffffffffffffffffffffff16600360008473ffffffffffffffffffffffffffffffffffffffff1673ffffffffffffffffffffffffffffffffffffffff16815260200190815260200160002060008373ffffffffffffffffffffffffffffffffffffffff1673ffffffffffffffffffffffffffffffffffffffff16815260200190815260200160002060006101000a81548173ffffffffffffffffffffffffffffffffffffffff021916908373ffffffffffffffffffffffffffffffffffffffff1602179055506002604051806020016040528060008054906101000a900473ffffffffffffffffffffffffffffffffffffffff1673ffffffffffffffffffffffffffffffffffffffff168152509080600181540180825580915050600190039060005260206000200160009091909190915060008201518160000160006101000a81548173ffffffffffffffffffffffffffffffffffffffff021916908373ffffffffffffffffffffffffffffffffffffffff160217905550505060008054906101000a900473ffffffffffffffffffffffffffffffffffffffff1673ffffffffffffffffffffffffffffffffffffffff168173ffffffffffffffffffffffffffffffffffffffff168373ffffffffffffffffffffffffffffffffffffffff167fe0764136d56911857b9a0d4e7c2fc48498664fa0d265913e309f96c72a3c32d460405160405180910390a450505050565b600080600090505b600280549050811015620008c8578273ffffffffffffffffffffffffffffffffffffffff16600282815481106200085e576200085d62001421565b5b9060005260206000200160000160009054906101000a900473ffffffffffffffffffffffffffffffffffffffff1673ffffffffffffffffffffffffffffffffffffffff1603620008b25780915050620008ca565b8080620008bf906200147f565b91505062000822565b505b919050565b600060028381548110620008e857620008e762001421565b5b90600052602060002001905060006001600085815260200190815260200160002060003373ffffffffffffffffffffffffffffffffffffffff1673ffffffffffffffffffffffffffffffffffffffff1681526020019081526020016000209050828160000154101562000992576040517f08c379a000000000000000000000000000000000000000000000000000000000815260040162000989906200151c565b60405180910390fd5b620009ab83826000015462000df390919063ffffffff16565b81600001819055508160000160009054906101000a900473ffffffffffffffffffffffffffffffffffffffff1673ffffffffffffffffffffffffffffffffffffffff1663a9059cbb33856040518363ffffffff1660e01b815260040162000a149291906200153e565b6020604051808303816000875af115801562000a34573d6000803e3d6000fd5b505050506040513d601f19601f8201168201806040525081019062000a5a9190620015a8565b50833373ffffffffffffffffffffffffffffffffffffffff167ff279e6a1f5e320cca91135676d9cb6e44ca8a08c0b88342bcdb1144f6511b5688560405162000aa491906200101a565b60405180910390a350505050565b7f000000000000000000000000000000000000000000000000000000000000000081565b6001602052816000526040600020602052806000526040600020600091509150508060000154905081565b60606002805480602002602001604051908101604052809291908181526020016000905b8282101562000bab578382906000526020600020016040518060200160405290816000820160009054906101000a900473ffffffffffffffffffffffffffffffffffffffff1673ffffffffffffffffffffffffffffffffffffffff1673ffffffffffffffffffffffffffffffffffffffff16815250508152602001906001019062000b25565b50505050905090565b60006002838154811062000bcd5762000bcc62001421565b5b90600052602060002001905060006001600085815260200190815260200160002060003373ffffffffffffffffffffffffffffffffffffffff1673ffffffffffffffffffffffffffffffffffffffff16815260200190815260200160002090508160000160009054906101000a900473ffffffffffffffffffffffffffffffffffffffff1673ffffffffffffffffffffffffffffffffffffffff166323b872dd3330866040518463ffffffff1660e01b815260040162000c9093929190620015da565b6020604051808303816000875af115801562000cb0573d6000803e3d6000fd5b505050506040513d601f19601f8201168201806040525081019062000cd69190620015a8565b5062000cf083826000015462000e0b90919063ffffffff16565b8160000181905550833373ffffffffffffffffffffffffffffffffffffffff167f90890809c654f11d6e72a28fa60149770a0d11ec6c92319d6ceb2bb0a4ea1a158560405162000d4191906200101a565b60405180910390a350505050565b60036020528160005260406000206020528060005260406000206000915091509054906101000a900473ffffffffffffffffffffffffffffffffffffffff1681565b6000806001600084815260200190815260200160002060003373ffffffffffffffffffffffffffffffffffffffff1673ffffffffffffffffffffffffffffffffffffffff16815260200190815260200160002090508060000154915050919050565b6000818362000e03919062001617565b905092915050565b6000818362000e1b919062001652565b905092915050565b6139ca806200168e83390190565b600080fd5b6000819050919050565b62000e4b8162000e36565b811462000e5757600080fd5b50565b60008135905062000e6b8162000e40565b92915050565b60006020828403121562000e8a5762000e8962000e31565b5b600062000e9a8482850162000e5a565b91505092915050565b600073ffffffffffffffffffffffffffffffffffffffff82169050919050565b6000819050919050565b600062000eee62000ee862000ee28462000ea3565b62000ec3565b62000ea3565b9050919050565b600062000f028262000ecd565b9050919050565b600062000f168262000ef5565b9050919050565b62000f288162000f09565b82525050565b600060208201905062000f45600083018462000f1d565b92915050565b600062000f588262000ea3565b9050919050565b62000f6a8162000f4b565b811462000f7657600080fd5b50565b60008135905062000f8a8162000f5f565b92915050565b6000806040838503121562000faa5762000fa962000e31565b5b600062000fba8582860162000f79565b925050602062000fcd8582860162000f79565b9150509250929050565b60006020828403121562000ff05762000fef62000e31565b5b6000620010008482850162000f79565b91505092915050565b620010148162000e36565b82525050565b600060208201905062001031600083018462001009565b92915050565b6000806040838503121562001051576200105062000e31565b5b6000620010618582860162000e5a565b9250506020620010748582860162000e5a565b9150509250929050565b620010898162000f4b565b82525050565b6000602082019050620010a660008301846200107e565b92915050565b60008060408385031215620010c657620010c562000e31565b5b6000620010d68582860162000e5a565b9250506020620010e98582860162000f79565b9150509250929050565b600081519050919050565b600082825260208201905092915050565b6000819050602082019050919050565b6200112a8162000f09565b82525050565b6020820160008201516200114860008501826200111f565b50505050565b60006200115c838362001130565b60208301905092915050565b6000602082019050919050565b60006200118282620010f3565b6200118e8185620010fe565b93506200119b836200110f565b8060005b83811015620011d2578151620011b688826200114e565b9750620011c38362001168565b9250506001810190506200119f565b5085935050505092915050565b60006020820190508181036000830152620011fb818462001175565b905092915050565b600082825260208201905092915050565b7f53616d6520546f6b656e20416464726573736573000000000000000000000000600082015250565b60006200124c60148362001203565b9150620012598262001214565b602082019050919050565b600060208201905081810360008301526200127f816200123d565b9050919050565b7f496e76616c696420546f6b656e20416464726573730000000000000000000000600082015250565b6000620012be60158362001203565b9150620012cb8262001286565b602082019050919050565b60006020820190508181036000830152620012f181620012af565b9050919050565b7f506f6f6c20416c72656164792045786973747300000000000000000000000000600082015250565b60006200133060138362001203565b91506200133d82620012f8565b602082019050919050565b60006020820190508181036000830152620013638162001321565b9050919050565b7f4446532d4c500000000000000000000000000000000000000000000000000000600082015250565b6000620013a260068362001203565b9150620013af826200136a565b602082019050919050565b600060a0820190508181036000830152620013d58162001393565b90508181036020830152620013ea8162001393565b9050620013fb60408301866200107e565b6200140a60608301856200107e565b6200141960808301846200107e565b949350505050565b7f4e487b7100000000000000000000000000000000000000000000000000000000600052603260045260246000fd5b7f4e487b7100000000000000000000000000000000000000000000000000000000600052601160045260246000fd5b60006200148c8262000e36565b91507fffffffffffffffffffffffffffffffffffffffffffffffffffffffffffffffff8203620014c157620014c062001450565b5b600182019050919050565b7f77697468647261773a206e6f7420676f6f640000000000000000000000000000600082015250565b60006200150460128362001203565b91506200151182620014cc565b602082019050919050565b600060208201905081810360008301526200153781620014f5565b9050919050565b60006040820190506200155560008301856200107e565b62001564602083018462001009565b9392505050565b60008115159050919050565b62001582816200156b565b81146200158e57600080fd5b50565b600081519050620015a28162001577565b92915050565b600060208284031215620015c157620015c062000e31565b5b6000620015d18482850162001591565b91505092915050565b6000606082019050620015f160008301866200107e565b6200160060208301856200107e565b6200160f604083018462001009565b949350505050565b6000620016248262000e36565b9150620016318362000e36565b92508282039050818111156200164c576200164b62001450565b5b92915050565b60006200165f8262000e36565b91506200166c8362000e36565b925082820190508082111562001687576200168662001450565b5b9291505056fe60e060405260646005553480156200001657600080fd5b50604051620039ca380380620039ca83398181016040528101906200003c919062000303565b848481600390816200004f919062000614565b50806004908162000061919062000614565b5050508273ffffffffffffffffffffffffffffffffffffffff1660a08173ffffffffffffffffffffffffffffffffffffffff16815250508173ffffffffffffffffffffffffffffffffffffffff1660c08173ffffffffffffffffffffffffffffffffffffffff16815250508073ffffffffffffffffffffffffffffffffffffffff1660808173ffffffffffffffffffffffffffffffffffffffff16815250505050505050620006fb565b6000604051905090565b600080fd5b600080fd5b600080fd5b600080fd5b6000601f19601f8301169050919050565b7f4e487b7100000000000000000000000000000000000000000000000000000000600052604160045260246000fd5b620001748262000129565b810181811067ffffffffffffffff821117156200019657620001956200013a565b5b80604052505050565b6000620001ab6200010b565b9050620001b9828262000169565b919050565b600067ffffffffffffffff821115620001dc57620001db6200013a565b5b620001e78262000129565b9050602081019050919050565b60005b8381101562000214578082015181840152602081019050620001f7565b60008484015250505050565b6000620002376200023184620001be565b6200019f565b90508281526020810184848401111562000256576200025562000124565b5b62000263848285620001f4565b509392505050565b600082601f8301126200028357620002826200011f565b5b81516200029584826020860162000220565b91505092915050565b600073ffffffffffffffffffffffffffffffffffffffff82169050919050565b6000620002cb826200029e565b9050919050565b620002dd81620002be565b8114620002e957600080fd5b50565b600081519050620002fd81620002d2565b92915050565b600080600080600060a0868803121562000322576200032162000115565b5b600086015167ffffffffffffffff8111156200034357620003426200011a565b5b62000351888289016200026b565b955050602086015167ffffffffffffffff8111156200037557620003746200011a565b5b62000383888289016200026b565b94505060406200039688828901620002ec565b9350506060620003a988828901620002ec565b9250506080620003bc88828901620002ec565b9150509295509295909350565b600081519050919050565b7f4e487b7100000000000000000000000000000000000000000000000000000000600052602260045260246000fd5b600060028204905060018216806200041c57607f821691505b602082108103620004325762000431620003d4565b5b50919050565b60008190508160005260206000209050919050565b60006020601f8301049050919050565b600082821b905092915050565b6000600883026200049c7fffffffffffffffffffffffffffffffffffffffffffffffffffffffffffffffff826200045d565b620004a886836200045d565b95508019841693508086168417925050509392505050565b6000819050919050565b6000819050919050565b6000620004f5620004ef620004e984620004c0565b620004ca565b620004c0565b9050919050565b6000819050919050565b6200051183620004d4565b620005296200052082620004fc565b8484546200046a565b825550505050565b600090565b6200054062000531565b6200054d81848462000506565b505050565b5b8181101562000575576200056960008262000536565b60018101905062000553565b5050565b601f821115620005c4576200058e8162000438565b62000599846200044d565b81016020851015620005a9578190505b620005c1620005b8856200044d565b83018262000552565b50505b505050565b600082821c905092915050565b6000620005e960001984600802620005c9565b1980831691505092915050565b6000620006048383620005d6565b9150826002028217905092915050565b6200061f82620003c9565b67ffffffffffffffff8111156200063b576200063a6200013a565b5b62000647825462000403565b6200065482828562000579565b600060209050601f8311600181146200068c576000841562000677578287015190505b620006838582620005f6565b865550620006f3565b601f1984166200069c8662000438565b60005b82811015620006c6578489015182556001820191506020850194506020810190506200069f565b86831015620006e65784890151620006e2601f891682620005d6565b8355505b6001600288020188555050505b505050505050565b60805160a05160c05161321a620007b0600039600081816105a80152818161081701528181610a0401528181610bda01528181610d4c01528181611089015281816111d6015281816112d20152818161133c01526115cd0152600081816107790152818161096501528181610afb01528181610e2c01528181610fef0152818161118101528181611267015281816112f30152818161131b01528181611533015261186201526000611791015261321a6000f3fe608060405234801561001057600080fd5b50600436106101425760003560e01c806370a08231116100b8578063a457c2d71161007c578063a457c2d7146103a7578063a5fec7c5146103d7578063a9059cbb146103f3578063ba4c28c314610423578063d21220a714610453578063dd62ed3e1461047157610142565b806370a08231146102c857806395d89b41146102f85780639c8f9f23146103165780639cd441da14610347578063a114398d1461037757610142565b806323b872dd1161010a57806323b872dd146101f057806325be124e14610220578063313ce5671461023e578063395093511461025c5780635a76f25e1461028c5780635c0b9a2b146102aa57610142565b806306fdde03146101475780630902f1ac14610165578063095ea7b31461018457806315770f92146101b457806318160ddd146101d2575b600080fd5b61014f6104a1565b60405161015c9190612368565b60405180910390f35b61016d610533565b60405161017b9291906123a3565b60405180910390f35b61019e6004803603810190610199919061245b565b610544565b6040516101ab91906124b6565b60405180910390f35b6101bc610567565b6040516101c991906124d1565b60405180910390f35b6101da61056d565b6040516101e791906124d1565b60405180910390f35b61020a600480360381019061020591906124ec565b610577565b60405161021791906124b6565b60405180910390f35b6102286105a6565b604051610235919061259e565b60405180910390f35b6102466105ca565b60405161025391906125d5565b60405180910390f35b6102766004803603810190610271919061245b565b6105d3565b60405161028391906124b6565b60405180910390f35b61029461060a565b6040516102a191906124d1565b60405180910390f35b6102b2610610565b6040516102bf91906124d1565b60405180910390f35b6102e260048036038101906102dd91906125f0565b610616565b6040516102ef91906124d1565b60405180910390f35b61030061065e565b60405161030d9190612368565b60405180910390f35b610330600480360381019061032b919061261d565b6106f0565b60405161033e9291906123a3565b60405180910390f35b610361600480360381019061035c919061264a565b610af7565b60405161036e91906124d1565b60405180910390f35b610391600480360381019061038c919061245b565b61117d565b60405161039e91906124d1565b60405180910390f35b6103c160048036038101906103bc919061245b565b611678565b6040516103ce91906124b6565b60405180910390f35b6103f160048036038101906103ec919061264a565b6116ef565b005b61040d6004803603810190610408919061245b565b611825565b60405161041a91906124b6565b60405180910390f35b61043d600480360381019061043891906125f0565b611848565b60405161044a91906124d1565b60405180910390f35b61045b611860565b604051610468919061259e565b60405180910390f35b61048b6004803603810190610486919061268a565b611884565b60405161049891906124d1565b60405180910390f35b6060600380546104b0906126f9565b80601f01602080910402602001604051908101604052809291908181526020018280546104dc906126f9565b80156105295780601f106104fe57610100808354040283529160200191610529565b820191906000526020600020905b81548152906001019060200180831161050c57829003601f168201915b5050505050905090565b600080600654915060075490509091565b60008061054f61190b565b905061055c818585611913565b600191505092915050565b60085481565b6000600254905090565b60008061058261190b565b905061058f858285611adc565b61059a858585611b68565b60019150509392505050565b7f000000000000000000000000000000000000000000000000000000000000000081565b60006012905090565b6000806105de61190b565b90506105ff8185856105f08589611884565b6105fa9190612759565b611913565b600191505092915050565b60065481565b60075481565b60008060008373ffffffffffffffffffffffffffffffffffffffff1673ffffffffffffffffffffffffffffffffffffffff168152602001908152602001600020549050919050565b60606004805461066d906126f9565b80601f0160208091040260200160405190810160405280929190818152602001828054610699906126f9565b80156106e65780601f106106bb576101008083540402835291602001916106e6565b820191906000526020600020905b8154815290600101906020018083116106c957829003601f168201915b5050505050905090565b60008082600960003373ffffffffffffffffffffffffffffffffffffffff1673ffffffffffffffffffffffffffffffffffffffff168152602001908152602001600020541015610775576040517f08c379a000000000000000000000000000000000000000000000000000000000815260040161076c906127d9565b60405180910390fd5b60007f000000000000000000000000000000000000000000000000000000000000000073ffffffffffffffffffffffffffffffffffffffff166370a08231306040518263ffffffff1660e01b81526004016107d09190612808565b602060405180830381865afa1580156107ed573d6000803e3d6000fd5b505050506040513d601f19601f820116820180604052508101906108119190612838565b905060007f000000000000000000000000000000000000000000000000000000000000000073ffffffffffffffffffffffffffffffffffffffff166370a08231306040518263ffffffff1660e01b815260040161086e9190612808565b602060405180830381865afa15801561088b573d6000803e3d6000fd5b505050506040513d601f19601f820116820180604052508101906108af9190612838565b9050600060085490508083876108c59190612865565b6108cf91906128d6565b94508082876108de9190612865565b6108e891906128d6565b93506000851180156108fa5750600084115b610939576040517f08c379a000000000000000000000000000000000000000000000000000000000815260040161093090612953565b60405180910390fd5b6109433387611dde565b61096385846109529190612973565b858461095e9190612973565b611e46565b7f000000000000000000000000000000000000000000000000000000000000000073ffffffffffffffffffffffffffffffffffffffff1663a9059cbb33876040518363ffffffff1660e01b81526004016109be9291906129a7565b6020604051808303816000875af11580156109dd573d6000803e3d6000fd5b505050506040513d601f19601f82011682018060405250810190610a0191906129fc565b507f000000000000000000000000000000000000000000000000000000000000000073ffffffffffffffffffffffffffffffffffffffff1663a9059cbb33866040518363ffffffff1660e01b8152600401610a5d9291906129a7565b6020604051808303816000875af1158015610a7c573d6000803e3d6000fd5b505050506040513d601f19601f82011682018060405250810190610aa091906129fc565b503373ffffffffffffffffffffffffffffffffffffffff167fcb69be6f06914cd72d42e18a286e6ea41d64fa0e34ba87c4002d28c4c493522a87604051610ae791906124d1565b60405180910390a2505050915091565b60007f000000000000000000000000000000000000000000000000000000000000000073ffffffffffffffffffffffffffffffffffffffff166323b872dd3330866040518463ffffffff1660e01b8152600401610b5693929190612a29565b6020604051808303816000875af1158015610b75573d6000803e3d6000fd5b505050506040513d601f19601f82011682018060405250810190610b9991906129fc565b610bd8576040517f08c379a0000000000000000000000000000000000000000000000000000000008152600401610bcf90612aac565b60405180910390fd5b7f000000000000000000000000000000000000000000000000000000000000000073ffffffffffffffffffffffffffffffffffffffff166323b872dd3330856040518463ffffffff1660e01b8152600401610c3593929190612a29565b6020604051808303816000875af1158015610c54573d6000803e3d6000fd5b505050506040513d601f19601f82011682018060405250810190610c7891906129fc565b610cb7576040517f08c379a0000000000000000000000000000000000000000000000000000000008152600401610cae90612aac565b60405180910390fd5b600080610cc2610533565b915091506000821180610cd55750600081115b15610f3a57600080610cf08388611e5890919063ffffffff16565b610d1e610d06858a611e5890919063ffffffff16565b610d19878a611e5890919063ffffffff16565b611e6e565b03610e0357610d4884610d3a858a611e5890919063ffffffff16565b611e8790919063ffffffff16565b90507f000000000000000000000000000000000000000000000000000000000000000073ffffffffffffffffffffffffffffffffffffffff1663a9059cbb33610d9a848a611e9d90919063ffffffff16565b6040518363ffffffff1660e01b8152600401610db79291906129a7565b6020604051808303816000875af1158015610dd6573d6000803e3d6000fd5b505050506040513d601f19601f82011682018060405250810190610dfa91906129fc565b50809550610edf565b610e2883610e1a8689611e5890919063ffffffff16565b611e8790919063ffffffff16565b91507f000000000000000000000000000000000000000000000000000000000000000073ffffffffffffffffffffffffffffffffffffffff1663a9059cbb33610e7a858b611e9d90919063ffffffff16565b6040518363ffffffff1660e01b8152600401610e979291906129a7565b6020604051808303816000875af1158015610eb6573d6000803e3d6000fd5b505050506040513d601f19601f82011682018060405250810190610eda91906129fc565b508196505b610f37610f0a6103e8610efc60038b611e5890919063ffffffff16565b611e8790919063ffffffff16565b610f326103e8610f2460038b611e5890919063ffffffff16565b611e8790919063ffffffff16565b6116ef565b50505b6000600854905060008103610f6457610f5d8587610f589190612865565b611eb3565b9350610f9d565b610f9a838288610f749190612865565b610f7e91906128d6565b838388610f8b9190612865565b610f9591906128d6565b611e6e565b93505b60008411610fe0576040517f08c379a0000000000000000000000000000000000000000000000000000000008152600401610fd790612b18565b60405180910390fd5b610fea3385611f2d565b6111267f000000000000000000000000000000000000000000000000000000000000000073ffffffffffffffffffffffffffffffffffffffff166370a08231306040518263ffffffff1660e01b81526004016110469190612808565b602060405180830381865afa158015611063573d6000803e3d6000fd5b505050506040513d601f19601f820116820180604052508101906110879190612838565b7f000000000000000000000000000000000000000000000000000000000000000073ffffffffffffffffffffffffffffffffffffffff166370a08231306040518263ffffffff1660e01b81526004016110e09190612808565b602060405180830381865afa1580156110fd573d6000803e3d6000fd5b505050506040513d601f19601f820116820180604052508101906111219190612838565b611e46565b3373ffffffffffffffffffffffffffffffffffffffff167f9ce434f8c25ca029d1f79dd217b13223ff3c5eddc4bed0a34d004f56a854df7f8560405161116c91906124d1565b60405180910390a250505092915050565b60007f000000000000000000000000000000000000000000000000000000000000000073ffffffffffffffffffffffffffffffffffffffff168373ffffffffffffffffffffffffffffffffffffffff16148061122457507f000000000000000000000000000000000000000000000000000000000000000073ffffffffffffffffffffffffffffffffffffffff168373ffffffffffffffffffffffffffffffffffffffff16145b611263576040517f08c379a000000000000000000000000000000000000000000000000000000000815260040161125a90612b84565b60405180910390fd5b60007f000000000000000000000000000000000000000000000000000000000000000073ffffffffffffffffffffffffffffffffffffffff168473ffffffffffffffffffffffffffffffffffffffff161490506000806112c1610533565b9150915060008060008086611319577f00000000000000000000000000000000000000000000000000000000000000007f0000000000000000000000000000000000000000000000000000000000000000868861135e565b7f00000000000000000000000000000000000000000000000000000000000000007f000000000000000000000000000000000000000000000000000000000000000087875b9350935093509350600089116113a9576040517f08c379a00000000000000000000000000000000000000000000000000000000081526004016113a090612bf0565b60405180910390fd5b8373ffffffffffffffffffffffffffffffffffffffff166323b872dd33308c6040518463ffffffff1660e01b81526004016113e693929190612a29565b6020604051808303816000875af1158015611405573d6000803e3d6000fd5b505050506040513d601f19601f8201168201806040525081019061142991906129fc565b5060006103e86103e58b61143d9190612865565b61144791906128d6565b905080836114559190612759565b81836114619190612865565b61146b91906128d6565b98508189106114af576040517f08c379a00000000000000000000000000000000000000000000000000000000081526004016114a690612c5c565b60405180910390fd5b8373ffffffffffffffffffffffffffffffffffffffff1663a9059cbb338b6040518363ffffffff1660e01b81526004016114ea9291906129a7565b6020604051808303816000875af1158015611509573d6000803e3d6000fd5b505050506040513d601f19601f8201168201806040525081019061152d91906129fc565b5061166a7f000000000000000000000000000000000000000000000000000000000000000073ffffffffffffffffffffffffffffffffffffffff166370a08231306040518263ffffffff1660e01b815260040161158a9190612808565b602060405180830381865afa1580156115a7573d6000803e3d6000fd5b505050506040513d601f19601f820116820180604052508101906115cb9190612838565b7f000000000000000000000000000000000000000000000000000000000000000073ffffffffffffffffffffffffffffffffffffffff166370a08231306040518263ffffffff1660e01b81526004016116249190612808565b602060405180830381865afa158015611641573d6000803e3d6000fd5b505050506040513d601f19601f820116820180604052508101906116659190612838565b611e46565b505050505050505092915050565b60008061168361190b565b905060006116918286611884565b9050838110156116d6576040517f08c379a00000000000000000000000000000000000000000000000000000000081526004016116cd90612cee565b60405180910390fd5b6116e38286868403611913565b60019250505092915050565b6000806116fa610533565b9150915060006117276004611719600388611e8790919063ffffffff16565b611e5890919063ffffffff16565b905060006117526004611744600388611e8790919063ffffffff16565b611e5890919063ffffffff16565b9050600061178d61177e856117708886611e5890919063ffffffff16565b611e8790919063ffffffff16565b84611f9590919063ffffffff16565b90507f000000000000000000000000000000000000000000000000000000000000000073ffffffffffffffffffffffffffffffffffffffff166321670f2233836040518363ffffffff1660e01b81526004016117ea9291906129a7565b600060405180830381600087803b15801561180457600080fd5b505af1158015611818573d6000803e3d6000fd5b5050505050505050505050565b60008061183061190b565b905061183d818585611b68565b600191505092915050565b60096020528060005260406000206000915090505481565b7f000000000000000000000000000000000000000000000000000000000000000081565b6000600160008473ffffffffffffffffffffffffffffffffffffffff1673ffffffffffffffffffffffffffffffffffffffff16815260200190815260200160002060008373ffffffffffffffffffffffffffffffffffffffff1673ffffffffffffffffffffffffffffffffffffffff16815260200190815260200160002054905092915050565b600033905090565b600073ffffffffffffffffffffffffffffffffffffffff168373ffffffffffffffffffffffffffffffffffffffff1603611982576040517f08c379a000000000000000000000000000000000000000000000000000000000815260040161197990612d80565b60405180910390fd5b600073ffffffffffffffffffffffffffffffffffffffff168273ffffffffffffffffffffffffffffffffffffffff16036119f1576040517f08c379a00000000000000000000000000000000000000000000000000000000081526004016119e890612e12565b60405180910390fd5b80600160008573ffffffffffffffffffffffffffffffffffffffff1673ffffffffffffffffffffffffffffffffffffffff16815260200190815260200160002060008473ffffffffffffffffffffffffffffffffffffffff1673ffffffffffffffffffffffffffffffffffffffff168152602001908152602001600020819055508173ffffffffffffffffffffffffffffffffffffffff168373ffffffffffffffffffffffffffffffffffffffff167f8c5be1e5ebec7d5bd14f71427d1e84f3dd0314c0f7b2291e5b200ac8c7c3b92583604051611acf91906124d1565b60405180910390a3505050565b6000611ae88484611884565b90507fffffffffffffffffffffffffffffffffffffffffffffffffffffffffffffffff8114611b625781811015611b54576040517f08c379a0000000000000000000000000000000000000000000000000000000008152600401611b4b90612e7e565b60405180910390fd5b611b618484848403611913565b5b50505050565b600073ffffffffffffffffffffffffffffffffffffffff168373ffffffffffffffffffffffffffffffffffffffff1603611bd7576040517f08c379a0000000000000000000000000000000000000000000000000000000008152600401611bce90612f10565b60405180910390fd5b600073ffffffffffffffffffffffffffffffffffffffff168273ffffffffffffffffffffffffffffffffffffffff1603611c46576040517f08c379a0000000000000000000000000000000000000000000000000000000008152600401611c3d90612fa2565b60405180910390fd5b611c51838383611fab565b60008060008573ffffffffffffffffffffffffffffffffffffffff1673ffffffffffffffffffffffffffffffffffffffff16815260200190815260200160002054905081811015611cd7576040517f08c379a0000000000000000000000000000000000000000000000000000000008152600401611cce90613034565b60405180910390fd5b8181036000808673ffffffffffffffffffffffffffffffffffffffff1673ffffffffffffffffffffffffffffffffffffffff16815260200190815260200160002081905550816000808573ffffffffffffffffffffffffffffffffffffffff1673ffffffffffffffffffffffffffffffffffffffff168152602001908152602001600020600082825401925050819055508273ffffffffffffffffffffffffffffffffffffffff168473ffffffffffffffffffffffffffffffffffffffff167fddf252ad1be2c89b69c2b068fc378daa952ba7f163c4a11628f55a4df523b3ef84604051611dc591906124d1565b60405180910390a3611dd8848484611fb0565b50505050565b611de88282611fb5565b611df182610616565b600960008473ffffffffffffffffffffffffffffffffffffffff1673ffffffffffffffffffffffffffffffffffffffff16815260200190815260200160002081905550611e3c61056d565b6008819055505050565b81600681905550806007819055505050565b60008183611e669190612865565b905092915050565b6000818310611e7d5781611e7f565b825b905092915050565b60008183611e9591906128d6565b905092915050565b60008183611eab9190612973565b905092915050565b60006003821115611f1a5781905060006001600284611ed291906128d6565b611edc9190612759565b90505b81811015611f14578091506002818285611ef991906128d6565b611f039190612759565b611f0d91906128d6565b9050611edf565b50611f28565b60008214611f2757600190505b5b919050565b611f378282612182565b611f4082610616565b600960008473ffffffffffffffffffffffffffffffffffffffff1673ffffffffffffffffffffffffffffffffffffffff16815260200190815260200160002081905550611f8b61056d565b6008819055505050565b60008183611fa39190612759565b905092915050565b505050565b505050565b600073ffffffffffffffffffffffffffffffffffffffff168273ffffffffffffffffffffffffffffffffffffffff1603612024576040517f08c379a000000000000000000000000000000000000000000000000000000000815260040161201b906130c6565b60405180910390fd5b61203082600083611fab565b60008060008473ffffffffffffffffffffffffffffffffffffffff1673ffffffffffffffffffffffffffffffffffffffff168152602001908152602001600020549050818110156120b6576040517f08c379a00000000000000000000000000000000000000000000000000000000081526004016120ad90613158565b60405180910390fd5b8181036000808573ffffffffffffffffffffffffffffffffffffffff1673ffffffffffffffffffffffffffffffffffffffff1681526020019081526020016000208190555081600260008282540392505081905550600073ffffffffffffffffffffffffffffffffffffffff168373ffffffffffffffffffffffffffffffffffffffff167fddf252ad1be2c89b69c2b068fc378daa952ba7f163c4a11628f55a4df523b3ef8460405161216991906124d1565b60405180910390a361217d83600084611fb0565b505050565b600073ffffffffffffffffffffffffffffffffffffffff168273ffffffffffffffffffffffffffffffffffffffff16036121f1576040517f08c379a00000000000000000000000000000000000000000000000000000000081526004016121e8906131c4565b60405180910390fd5b6121fd60008383611fab565b806002600082825461220f9190612759565b92505081905550806000808473ffffffffffffffffffffffffffffffffffffffff1673ffffffffffffffffffffffffffffffffffffffff168152602001908152602001600020600082825401925050819055508173ffffffffffffffffffffffffffffffffffffffff16600073ffffffffffffffffffffffffffffffffffffffff167fddf252ad1be2c89b69c2b068fc378daa952ba7f163c4a11628f55a4df523b3ef836040516122c091906124d1565b60405180910390a36122d460008383611fb0565b5050565b600081519050919050565b600082825260208201905092915050565b60005b838110156123125780820151818401526020810190506122f7565b60008484015250505050565b6000601f19601f8301169050919050565b600061233a826122d8565b61234481856122e3565b93506123548185602086016122f4565b61235d8161231e565b840191505092915050565b60006020820190508181036000830152612382818461232f565b905092915050565b6000819050919050565b61239d8161238a565b82525050565b60006040820190506123b86000830185612394565b6123c56020830184612394565b9392505050565b600080fd5b600073ffffffffffffffffffffffffffffffffffffffff82169050919050565b60006123fc826123d1565b9050919050565b61240c816123f1565b811461241757600080fd5b50565b60008135905061242981612403565b92915050565b6124388161238a565b811461244357600080fd5b50565b6000813590506124558161242f565b92915050565b60008060408385031215612472576124716123cc565b5b60006124808582860161241a565b925050602061249185828601612446565b9150509250929050565b60008115159050919050565b6124b08161249b565b82525050565b60006020820190506124cb60008301846124a7565b92915050565b60006020820190506124e66000830184612394565b92915050565b600080600060608486031215612505576125046123cc565b5b60006125138682870161241a565b93505060206125248682870161241a565b925050604061253586828701612446565b9150509250925092565b6000819050919050565b600061256461255f61255a846123d1565b61253f565b6123d1565b9050919050565b600061257682612549565b9050919050565b60006125888261256b565b9050919050565b6125988161257d565b82525050565b60006020820190506125b3600083018461258f565b92915050565b600060ff82169050919050565b6125cf816125b9565b82525050565b60006020820190506125ea60008301846125c6565b92915050565b600060208284031215612606576126056123cc565b5b60006126148482850161241a565b91505092915050565b600060208284031215612633576126326123cc565b5b600061264184828501612446565b91505092915050565b60008060408385031215612661576126606123cc565b5b600061266f85828601612446565b925050602061268085828601612446565b9150509250929050565b600080604083850312156126a1576126a06123cc565b5b60006126af8582860161241a565b92505060206126c08582860161241a565b9150509250929050565b7f4e487b7100000000000000000000000000000000000000000000000000000000600052602260045260246000fd5b6000600282049050600182168061271157607f821691505b602082108103612724576127236126ca565b5b50919050565b7f4e487b7100000000000000000000000000000000000000000000000000000000600052601160045260246000fd5b60006127648261238a565b915061276f8361238a565b92508282019050808211156127875761278661272a565b5b92915050565b7f496e73756666696369656e74206c697175696469747920736861726573000000600082015250565b60006127c3601d836122e3565b91506127ce8261278d565b602082019050919050565b600060208201905081810360008301526127f2816127b6565b9050919050565b612802816123f1565b82525050565b600060208201905061281d60008301846127f9565b92915050565b6000815190506128328161242f565b92915050565b60006020828403121561284e5761284d6123cc565b5b600061285c84828501612823565b91505092915050565b60006128708261238a565b915061287b8361238a565b92508282026128898161238a565b915082820484148315176128a05761289f61272a565b5b5092915050565b7f4e487b7100000000000000000000000000000000000000000000000000000000600052601260045260246000fd5b60006128e18261238a565b91506128ec8361238a565b9250826128fc576128fb6128a7565b5b828204905092915050565b7f496e73756666696369656e74207472616e7366657220616d6f756e7473000000600082015250565b600061293d601d836122e3565b915061294882612907565b602082019050919050565b6000602082019050818103600083015261296c81612930565b9050919050565b600061297e8261238a565b91506129898361238a565b92508282039050818111156129a1576129a061272a565b5b92915050565b60006040820190506129bc60008301856127f9565b6129c96020830184612394565b9392505050565b6129d98161249b565b81146129e457600080fd5b50565b6000815190506129f6816129d0565b92915050565b600060208284031215612a1257612a116123cc565b5b6000612a20848285016129e7565b91505092915050565b6000606082019050612a3e60008301866127f9565b612a4b60208301856127f9565b612a586040830184612394565b949350505050565b7f546f6b656e205472616e73666572204661696c65640000000000000000000000600082015250565b6000612a966015836122e3565b9150612aa182612a60565b602082019050919050565b60006020820190508181036000830152612ac581612a89565b9050919050565b7f4e6f204c697175696469747920536861726573204d696e746564000000000000600082015250565b6000612b02601a836122e3565b9150612b0d82612acc565b602082019050919050565b60006020820190508181036000830152612b3181612af5565b9050919050565b7f496e76616c696420546f6b656e20416464726573730000000000000000000000600082015250565b6000612b6e6015836122e3565b9150612b7982612b38565b602082019050919050565b60006020820190508181036000830152612b9d81612b61565b9050919050565b7f496e73756666696369656e7420416d6f756e7400000000000000000000000000600082015250565b6000612bda6013836122e3565b9150612be582612ba4565b602082019050919050565b60006020820190508181036000830152612c0981612bcd565b9050919050565b7f496e73756666696369656e74204c697175696469747900000000000000000000600082015250565b6000612c466016836122e3565b9150612c5182612c10565b602082019050919050565b60006020820190508181036000830152612c7581612c39565b9050919050565b7f45524332303a2064656372656173656420616c6c6f77616e63652062656c6f7760008201527f207a65726f000000000000000000000000000000000000000000000000000000602082015250565b6000612cd86025836122e3565b9150612ce382612c7c565b604082019050919050565b60006020820190508181036000830152612d0781612ccb565b9050919050565b7f45524332303a20617070726f76652066726f6d20746865207a65726f2061646460008201527f7265737300000000000000000000000000000000000000000000000000000000602082015250565b6000612d6a6024836122e3565b9150612d7582612d0e565b604082019050919050565b60006020820190508181036000830152612d9981612d5d565b9050919050565b7f45524332303a20617070726f766520746f20746865207a65726f20616464726560008201527f7373000000000000000000000000000000000000000000000000000000000000602082015250565b6000612dfc6022836122e3565b9150612e0782612da0565b604082019050919050565b60006020820190508181036000830152612e2b81612def565b9050919050565b7f45524332303a20696e73756666696369656e7420616c6c6f77616e6365000000600082015250565b6000612e68601d836122e3565b9150612e7382612e32565b602082019050919050565b60006020820190508181036000830152612e9781612e5b565b9050919050565b7f45524332303a207472616e736665722066726f6d20746865207a65726f20616460008201527f6472657373000000000000000000000000000000000000000000000000000000602082015250565b6000612efa6025836122e3565b9150612f0582612e9e565b604082019050919050565b60006020820190508181036000830152612f2981612eed565b9050919050565b7f45524332303a207472616e7366657220746f20746865207a65726f206164647260008201527f6573730000000000000000000000000000000000000000000000000000000000602082015250565b6000612f8c6023836122e3565b9150612f9782612f30565b604082019050919050565b60006020820190508181036000830152612fbb81612f7f565b9050919050565b7f45524332303a207472616e7366657220616d6f756e742065786365656473206260008201527f616c616e63650000000000000000000000000000000000000000000000000000602082015250565b600061301e6026836122e3565b915061302982612fc2565b604082019050919050565b6000602082019050818103600083015261304d81613011565b9050919050565b7f45524332303a206275726e2066726f6d20746865207a65726f2061646472657360008201527f7300000000000000000000000000000000000000000000000000000000000000602082015250565b60006130b06021836122e3565b91506130bb82613054565b604082019050919050565b600060208201905081810360008301526130df816130a3565b9050919050565b7f45524332303a206275726e20616d6f756e7420657863656564732062616c616e60008201527f6365000000000000000000000000000000000000000000000000000000000000602082015250565b60006131426022836122e3565b915061314d826130e6565b604082019050919050565b6000602082019050818103600083015261317181613135565b9050919050565b7f45524332303a206d696e7420746f20746865207a65726f206164647265737300600082015250565b60006131ae601f836122e3565b91506131b982613178565b602082019050919050565b600060208201905081810360008301526131dd816131a1565b905091905056fea2646970667358221220a5ce985664cc2b153c86044d2c2bac434c8c9b0c8174d299184dfc6e1d735dd764736f6c63430008130033a26469706673582212200c4270ad621ffd61e73c19fa7662254460d2150ad6113519f5f1382b173d4e4f64736f6c63430008130033",
  "immutableReferences": {
    "1106": [
      {
        "length": 32,
        "start": 1371
      }
    ],
    "1145": [
      {
        "length": 32,
        "start": 2740
      }
    ]
  },
  "source": "// SPDX-License-Identifier: MIT\r\n\r\npragma solidity ^0.8.0;\r\n\r\nimport \"../contracts/LiqudityPool.sol\";\r\nimport \"@openzeppelin/contracts/token/ERC20/ERC20.sol\";\r\nimport \"@openzeppelin/contracts/utils/math/SafeMath.sol\";\r\n\r\n// import \"./contracts/DFSToken.sol\";\r\n\r\ncontract Dex {\r\n  using SafeMath for uint256;\r\n  address immutable DFSTokenA;\r\n\r\n  event Deposit(address indexed user, uint256 indexed pid, uint256 amount);\r\n  event Withdraw(address indexed user, uint256 indexed pid, uint256 amount);\r\n  ERC20 _lpToken;\r\n  //  ERC20\r\n\r\n  struct UserInfo {\r\n    uint256 amount;\r\n  }\r\n\r\n  mapping(uint256 => mapping(address => UserInfo)) public userInfo;\r\n\r\n  struct PoolInfo {\r\n    IERC20 lpToken;\r\n  }\r\n  PoolInfo[] public poolInfo;\r\n  // Owner's address of DEX\r\n  address public immutable owner;\r\n  // Array of liquidity pool addresses\r\n\r\n  // Mapping to get address of liquidity pool with token addresses\r\n  mapping(address => mapping(address => address)) public getLiquidityPool;\r\n\r\n  // Event\r\n  event LiquidityPoolCreted(\r\n    address indexed _addressToken1,\r\n    address indexed _addressToken2,\r\n    address indexed _addressLiquidityPool\r\n  );\r\n\r\n  constructor(address _DFSTokenA) {\r\n    owner = msg.sender;\r\n    DFSTokenA = _DFSTokenA;\r\n  }\r\n\r\n  function createLiquidityPool(address _tokenA, address _tokenB) external {\r\n    (address _token1, address _token2) = _tokenA < _tokenB\r\n      ? (_tokenA, _tokenB)\r\n      : (_tokenB, _tokenA);\r\n    //         _tokenA _tokenB    .\r\n    //          _token1  ,\r\n    //  _token2  .   if     .\r\n    // _tokenA < _tokenB _tokenA _tokenB     .\r\n    //    , _token1 _tokenA , _token2 _tokenB .\r\n    //    , _token1 _tokenB , _token2 _tokenA .\r\n    //     _token1   , _token2    .\r\n    //      _token1 ,  _token2    ,      .\r\n\r\n    require(_token1 != _token2, \"Same Token Addresses\");\r\n    require(_token1 != address(0), \"Invalid Token Address\");\r\n    require(_token2 != address(0), \"Invalid Token Address\");\r\n    require(\r\n      getLiquidityPool[_token1][_token2] == address(0),\r\n      \"Pool Already Exists\"\r\n    );\r\n\r\n    _lpToken = ERC20(\r\n      new LiquidityPool(\"DFS-LP\", \"DFS-LP\", _token1, _token2, DFSTokenA)\r\n    );\r\n    //ERC20  LiquidityPool   \r\n    //DFS-LP name,symbol\r\n    getLiquidityPool[_token1][_token2] = address(_lpToken);\r\n    //  _token1 _token2    getLiquidityPool      \r\n\r\n    poolInfo.push(PoolInfo({ lpToken: _lpToken }));\r\n    ///IERC20 lpToken;    lpToken \r\n    // IERC20  lpToken\r\n    //   struct PoolInfo {\r\n    //   IERC20 lpToken;\r\n    // }\r\n\r\n    emit LiquidityPoolCreted(_token1, _token2, address(_lpToken));\r\n  }\r\n\r\n  function deposit(uint256 _pid, uint256 _amount) public {\r\n    PoolInfo storage pool = poolInfo[_pid];\r\n    UserInfo storage user = userInfo[_pid][msg.sender];\r\n\r\n    pool.lpToken.transferFrom(address(msg.sender), address(this), _amount);\r\n    // msg.sender   lp ca amount \r\n    user.amount = user.amount.add(_amount);\r\n\r\n    emit Deposit(msg.sender, _pid, _amount);\r\n  }\r\n\r\n  function getLPBalance(uint _pid) public view returns (uint) {\r\n    UserInfo storage user = userInfo[_pid][msg.sender];\r\n    return user.amount;\r\n  }\r\n\r\n  function withdraw(uint256 _pid, uint256 _amount) public {\r\n    PoolInfo storage pool = poolInfo[_pid];\r\n    UserInfo storage user = userInfo[_pid][msg.sender];\r\n    require(user.amount >= _amount, \"withdraw: not good\");\r\n\r\n    user.amount = user.amount.sub(_amount);\r\n\r\n    pool.lpToken.transfer(address(msg.sender), _amount);\r\n    //  msg.sender amount\r\n    emit Withdraw(msg.sender, _pid, _amount);\r\n  }\r\n\r\n  function getpoolInfo() public view returns (PoolInfo[] memory) {\r\n    return poolInfo;\r\n  }\r\n\r\n  function getPid(address poolCA) public view returns (uint) {\r\n    for (uint i = 0; i < poolInfo.length; i++) {\r\n      if (address(poolInfo[i].lpToken) == poolCA) {\r\n        return i;\r\n      }\r\n    }\r\n  }\r\n}\r\n",
  "sourcePath": "C:\\Users\\\\Desktop\\defiscan\\SolarProject\\firstSolar\\back\\test\\contracts\\Dex.sol",
  "compiler": {
    "name": "solc",
    "version": "0.8.19+commit.7dd6d404.Emscripten.clang"
  },
  "schemaVersion": "3.4.13",
  "updatedAt": "2023-04-15T12:18:01.254Z",
  "devdoc": {
    "kind": "dev",
    "methods": {},
    "version": 1
  },
  "userdoc": {
    "kind": "user",
    "methods": {},
    "version": 1
  }
}