{
  "contractName": "LiquidityPool",
  "abi": [
    {
      "inputs": [
        {
          "internalType": "string",
          "name": "_name",
          "type": "string"
        },
        {
          "internalType": "string",
          "name": "_symbol",
          "type": "string"
        },
        {
          "internalType": "address",
          "name": "_token1",
          "type": "address"
        },
        {
          "internalType": "address",
          "name": "_token2",
          "type": "address"
        }
      ],
      "stateMutability": "nonpayable",
      "type": "constructor"
    },
    {
      "anonymous": false,
      "inputs": [
        {
          "indexed": true,
          "internalType": "address",
          "name": "owner",
          "type": "address"
        },
        {
          "indexed": true,
          "internalType": "address",
          "name": "spender",
          "type": "address"
        },
        {
          "indexed": false,
          "internalType": "uint256",
          "name": "value",
          "type": "uint256"
        }
      ],
      "name": "Approval",
      "type": "event"
    },
    {
      "anonymous": false,
      "inputs": [
        {
          "indexed": true,
          "internalType": "address",
          "name": "_liquidityProvider",
          "type": "address"
        },
        {
          "indexed": false,
          "internalType": "uint256",
          "name": "_sharesBurned",
          "type": "uint256"
        }
      ],
      "name": "BurnLpToken",
      "type": "event"
    },
    {
      "anonymous": false,
      "inputs": [
        {
          "indexed": true,
          "internalType": "address",
          "name": "_liquidityProvider",
          "type": "address"
        },
        {
          "indexed": false,
          "internalType": "uint256",
          "name": "_sharesMinted",
          "type": "uint256"
        }
      ],
      "name": "MintLpToken",
      "type": "event"
    },
    {
      "anonymous": false,
      "inputs": [
        {
          "indexed": true,
          "internalType": "address",
          "name": "from",
          "type": "address"
        },
        {
          "indexed": true,
          "internalType": "address",
          "name": "to",
          "type": "address"
        },
        {
          "indexed": false,
          "internalType": "uint256",
          "name": "value",
          "type": "uint256"
        }
      ],
      "name": "Transfer",
      "type": "event"
    },
    {
      "inputs": [
        {
          "internalType": "address",
          "name": "owner",
          "type": "address"
        },
        {
          "internalType": "address",
          "name": "spender",
          "type": "address"
        }
      ],
      "name": "allowance",
      "outputs": [
        {
          "internalType": "uint256",
          "name": "",
          "type": "uint256"
        }
      ],
      "stateMutability": "view",
      "type": "function"
    },
    {
      "inputs": [
        {
          "internalType": "address",
          "name": "spender",
          "type": "address"
        },
        {
          "internalType": "uint256",
          "name": "amount",
          "type": "uint256"
        }
      ],
      "name": "approve",
      "outputs": [
        {
          "internalType": "bool",
          "name": "",
          "type": "bool"
        }
      ],
      "stateMutability": "nonpayable",
      "type": "function"
    },
    {
      "inputs": [
        {
          "internalType": "address",
          "name": "account",
          "type": "address"
        }
      ],
      "name": "balanceOf",
      "outputs": [
        {
          "internalType": "uint256",
          "name": "",
          "type": "uint256"
        }
      ],
      "stateMutability": "view",
      "type": "function"
    },
    {
      "inputs": [],
      "name": "decimals",
      "outputs": [
        {
          "internalType": "uint8",
          "name": "",
          "type": "uint8"
        }
      ],
      "stateMutability": "view",
      "type": "function"
    },
    {
      "inputs": [
        {
          "internalType": "address",
          "name": "spender",
          "type": "address"
        },
        {
          "internalType": "uint256",
          "name": "subtractedValue",
          "type": "uint256"
        }
      ],
      "name": "decreaseAllowance",
      "outputs": [
        {
          "internalType": "bool",
          "name": "",
          "type": "bool"
        }
      ],
      "stateMutability": "nonpayable",
      "type": "function"
    },
    {
      "inputs": [
        {
          "internalType": "address",
          "name": "spender",
          "type": "address"
        },
        {
          "internalType": "uint256",
          "name": "addedValue",
          "type": "uint256"
        }
      ],
      "name": "increaseAllowance",
      "outputs": [
        {
          "internalType": "bool",
          "name": "",
          "type": "bool"
        }
      ],
      "stateMutability": "nonpayable",
      "type": "function"
    },
    {
      "inputs": [],
      "name": "name",
      "outputs": [
        {
          "internalType": "string",
          "name": "",
          "type": "string"
        }
      ],
      "stateMutability": "view",
      "type": "function"
    },
    {
      "inputs": [],
      "name": "reserve1",
      "outputs": [
        {
          "internalType": "uint256",
          "name": "",
          "type": "uint256"
        }
      ],
      "stateMutability": "view",
      "type": "function"
    },
    {
      "inputs": [],
      "name": "reserve2",
      "outputs": [
        {
          "internalType": "uint256",
          "name": "",
          "type": "uint256"
        }
      ],
      "stateMutability": "view",
      "type": "function"
    },
    {
      "inputs": [],
      "name": "symbol",
      "outputs": [
        {
          "internalType": "string",
          "name": "",
          "type": "string"
        }
      ],
      "stateMutability": "view",
      "type": "function"
    },
    {
      "inputs": [],
      "name": "token1",
      "outputs": [
        {
          "internalType": "contract ERC20",
          "name": "",
          "type": "address"
        }
      ],
      "stateMutability": "view",
      "type": "function"
    },
    {
      "inputs": [],
      "name": "token2",
      "outputs": [
        {
          "internalType": "contract ERC20",
          "name": "",
          "type": "address"
        }
      ],
      "stateMutability": "view",
      "type": "function"
    },
    {
      "inputs": [],
      "name": "totalLiquidity",
      "outputs": [
        {
          "internalType": "uint256",
          "name": "",
          "type": "uint256"
        }
      ],
      "stateMutability": "view",
      "type": "function"
    },
    {
      "inputs": [],
      "name": "totalSupply",
      "outputs": [
        {
          "internalType": "uint256",
          "name": "",
          "type": "uint256"
        }
      ],
      "stateMutability": "view",
      "type": "function"
    },
    {
      "inputs": [
        {
          "internalType": "address",
          "name": "to",
          "type": "address"
        },
        {
          "internalType": "uint256",
          "name": "amount",
          "type": "uint256"
        }
      ],
      "name": "transfer",
      "outputs": [
        {
          "internalType": "bool",
          "name": "",
          "type": "bool"
        }
      ],
      "stateMutability": "nonpayable",
      "type": "function"
    },
    {
      "inputs": [
        {
          "internalType": "address",
          "name": "from",
          "type": "address"
        },
        {
          "internalType": "address",
          "name": "to",
          "type": "address"
        },
        {
          "internalType": "uint256",
          "name": "amount",
          "type": "uint256"
        }
      ],
      "name": "transferFrom",
      "outputs": [
        {
          "internalType": "bool",
          "name": "",
          "type": "bool"
        }
      ],
      "stateMutability": "nonpayable",
      "type": "function"
    },
    {
      "inputs": [
        {
          "internalType": "address",
          "name": "",
          "type": "address"
        }
      ],
      "name": "userLiquidity",
      "outputs": [
        {
          "internalType": "uint256",
          "name": "",
          "type": "uint256"
        }
      ],
      "stateMutability": "view",
      "type": "function"
    },
    {
      "inputs": [],
      "name": "getReserves",
      "outputs": [
        {
          "internalType": "uint256",
          "name": "_reserve1",
          "type": "uint256"
        },
        {
          "internalType": "uint256",
          "name": "_reserve2",
          "type": "uint256"
        }
      ],
      "stateMutability": "view",
      "type": "function"
    },
    {
      "inputs": [
        {
          "internalType": "address",
          "name": "_tokenIn",
          "type": "address"
        },
        {
          "internalType": "uint256",
          "name": "_amountIn",
          "type": "uint256"
        }
      ],
      "name": "swapTokens",
      "outputs": [
        {
          "internalType": "uint256",
          "name": "_amountOut",
          "type": "uint256"
        }
      ],
      "stateMutability": "nonpayable",
      "type": "function"
    },
    {
      "inputs": [
        {
          "internalType": "uint256",
          "name": "_amountToken1",
          "type": "uint256"
        },
        {
          "internalType": "uint256",
          "name": "_amountToken2",
          "type": "uint256"
        }
      ],
      "name": "addLiquidity",
      "outputs": [
        {
          "internalType": "uint256",
          "name": "_liquidityShares",
          "type": "uint256"
        }
      ],
      "stateMutability": "nonpayable",
      "type": "function"
    },
    {
      "inputs": [
        {
          "internalType": "uint256",
          "name": "_liquidityShares",
          "type": "uint256"
        }
      ],
      "name": "removeLiquidity",
      "outputs": [
        {
          "internalType": "uint256",
          "name": "_amountToken1",
          "type": "uint256"
        },
        {
          "internalType": "uint256",
          "name": "_amountToken2",
          "type": "uint256"
        }
      ],
      "stateMutability": "nonpayable",
      "type": "function"
    }
  ],
  "bytecode": "0x60c06040523480156200001157600080fd5b50604051620037a0380380620037a08339818101604052810190620000379190620002c9565b838381600390816200004a9190620005c4565b5080600490816200005c9190620005c4565b5050508173ffffffffffffffffffffffffffffffffffffffff1660808173ffffffffffffffffffffffffffffffffffffffff16815250508073ffffffffffffffffffffffffffffffffffffffff1660a08173ffffffffffffffffffffffffffffffffffffffff168152505050505050620006ab565b6000604051905090565b600080fd5b600080fd5b600080fd5b600080fd5b6000601f19601f8301169050919050565b7f4e487b7100000000000000000000000000000000000000000000000000000000600052604160045260246000fd5b6200013a82620000ef565b810181811067ffffffffffffffff821117156200015c576200015b62000100565b5b80604052505050565b600062000171620000d1565b90506200017f82826200012f565b919050565b600067ffffffffffffffff821115620001a257620001a162000100565b5b620001ad82620000ef565b9050602081019050919050565b60005b83811015620001da578082015181840152602081019050620001bd565b60008484015250505050565b6000620001fd620001f78462000184565b62000165565b9050828152602081018484840111156200021c576200021b620000ea565b5b62000229848285620001ba565b509392505050565b600082601f830112620002495762000248620000e5565b5b81516200025b848260208601620001e6565b91505092915050565b600073ffffffffffffffffffffffffffffffffffffffff82169050919050565b6000620002918262000264565b9050919050565b620002a38162000284565b8114620002af57600080fd5b50565b600081519050620002c38162000298565b92915050565b60008060008060808587031215620002e657620002e5620000db565b5b600085015167ffffffffffffffff811115620003075762000306620000e0565b5b620003158782880162000231565b945050602085015167ffffffffffffffff811115620003395762000338620000e0565b5b620003478782880162000231565b93505060406200035a87828801620002b2565b92505060606200036d87828801620002b2565b91505092959194509250565b600081519050919050565b7f4e487b7100000000000000000000000000000000000000000000000000000000600052602260045260246000fd5b60006002820490506001821680620003cc57607f821691505b602082108103620003e257620003e162000384565b5b50919050565b60008190508160005260206000209050919050565b60006020601f8301049050919050565b600082821b905092915050565b6000600883026200044c7fffffffffffffffffffffffffffffffffffffffffffffffffffffffffffffffff826200040d565b6200045886836200040d565b95508019841693508086168417925050509392505050565b6000819050919050565b6000819050919050565b6000620004a56200049f620004998462000470565b6200047a565b62000470565b9050919050565b6000819050919050565b620004c18362000484565b620004d9620004d082620004ac565b8484546200041a565b825550505050565b600090565b620004f0620004e1565b620004fd818484620004b6565b505050565b5b81811015620005255762000519600082620004e6565b60018101905062000503565b5050565b601f82111562000574576200053e81620003e8565b6200054984620003fd565b8101602085101562000559578190505b620005716200056885620003fd565b83018262000502565b50505b505050565b600082821c905092915050565b6000620005996000198460080262000579565b1980831691505092915050565b6000620005b4838362000586565b9150826002028217905092915050565b620005cf8262000379565b67ffffffffffffffff811115620005eb57620005ea62000100565b5b620005f78254620003b3565b6200060482828562000529565b600060209050601f8311600181146200063c576000841562000627578287015190505b620006338582620005a6565b865550620006a3565b601f1984166200064c86620003e8565b60005b8281101562000676578489015182556001820191506020850194506020810190506200064f565b8683101562000696578489015162000692601f89168262000586565b8355505b6001600288020188555050505b505050505050565b60805160a05161304a6200075660003960008181610581015281816107f0015281816109dd01528181610bb301528181610d2401528181611005015281816111520152818161124e015281816112b801526115490152600081816107520152818161093e01528181610ad401528181610e0401528181610f6b015281816110fd015281816111e30152818161126f01528181611297015281816114af01526116a8015261304a6000f3fe608060405234801561001057600080fd5b50600436106101375760003560e01c80635c0b9a2b116100b8578063a114398d1161007c578063a114398d1461036c578063a457c2d71461039c578063a9059cbb146103cc578063ba4c28c3146103fc578063d21220a71461042c578063dd62ed3e1461044a57610137565b80635c0b9a2b1461029f57806370a08231146102bd57806395d89b41146102ed5780639c8f9f231461030b5780639cd441da1461033c57610137565b806323b872dd116100ff57806323b872dd146101e557806325be124e14610215578063313ce5671461023357806339509351146102515780635a76f25e1461028157610137565b806306fdde031461013c5780630902f1ac1461015a578063095ea7b31461017957806315770f92146101a957806318160ddd146101c7575b600080fd5b61014461047a565b6040516101519190612198565b60405180910390f35b61016261050c565b6040516101709291906121d3565b60405180910390f35b610193600480360381019061018e919061228b565b61051d565b6040516101a091906122e6565b60405180910390f35b6101b1610540565b6040516101be9190612301565b60405180910390f35b6101cf610546565b6040516101dc9190612301565b60405180910390f35b6101ff60048036038101906101fa919061231c565b610550565b60405161020c91906122e6565b60405180910390f35b61021d61057f565b60405161022a91906123ce565b60405180910390f35b61023b6105a3565b6040516102489190612405565b60405180910390f35b61026b6004803603810190610266919061228b565b6105ac565b60405161027891906122e6565b60405180910390f35b6102896105e3565b6040516102969190612301565b60405180910390f35b6102a76105e9565b6040516102b49190612301565b60405180910390f35b6102d760048036038101906102d29190612420565b6105ef565b6040516102e49190612301565b60405180910390f35b6102f5610637565b6040516103029190612198565b60405180910390f35b6103256004803603810190610320919061244d565b6106c9565b6040516103339291906121d3565b60405180910390f35b6103566004803603810190610351919061247a565b610ad0565b6040516103639190612301565b60405180910390f35b6103866004803603810190610381919061228b565b6110f9565b6040516103939190612301565b60405180910390f35b6103b660048036038101906103b1919061228b565b6115f4565b6040516103c391906122e6565b60405180910390f35b6103e660048036038101906103e1919061228b565b61166b565b6040516103f391906122e6565b60405180910390f35b61041660048036038101906104119190612420565b61168e565b6040516104239190612301565b60405180910390f35b6104346116a6565b60405161044191906123ce565b60405180910390f35b610464600480360381019061045f91906124ba565b6116ca565b6040516104719190612301565b60405180910390f35b60606003805461048990612529565b80601f01602080910402602001604051908101604052809291908181526020018280546104b590612529565b80156105025780601f106104d757610100808354040283529160200191610502565b820191906000526020600020905b8154815290600101906020018083116104e557829003601f168201915b5050505050905090565b600080600554915060065490509091565b600080610528611751565b9050610535818585611759565b600191505092915050565b60075481565b6000600254905090565b60008061055b611751565b9050610568858285611922565b6105738585856119ae565b60019150509392505050565b7f000000000000000000000000000000000000000000000000000000000000000081565b60006012905090565b6000806105b7611751565b90506105d88185856105c985896116ca565b6105d39190612589565b611759565b600191505092915050565b60055481565b60065481565b60008060008373ffffffffffffffffffffffffffffffffffffffff1673ffffffffffffffffffffffffffffffffffffffff168152602001908152602001600020549050919050565b60606004805461064690612529565b80601f016020809104026020016040519081016040528092919081815260200182805461067290612529565b80156106bf5780601f10610694576101008083540402835291602001916106bf565b820191906000526020600020905b8154815290600101906020018083116106a257829003601f168201915b5050505050905090565b60008082600860003373ffffffffffffffffffffffffffffffffffffffff1673ffffffffffffffffffffffffffffffffffffffff16815260200190815260200160002054101561074e576040517f08c379a000000000000000000000000000000000000000000000000000000000815260040161074590612609565b60405180910390fd5b60007f000000000000000000000000000000000000000000000000000000000000000073ffffffffffffffffffffffffffffffffffffffff166370a08231306040518263ffffffff1660e01b81526004016107a99190612638565b602060405180830381865afa1580156107c6573d6000803e3d6000fd5b505050506040513d601f19601f820116820180604052508101906107ea9190612668565b905060007f000000000000000000000000000000000000000000000000000000000000000073ffffffffffffffffffffffffffffffffffffffff166370a08231306040518263ffffffff1660e01b81526004016108479190612638565b602060405180830381865afa158015610864573d6000803e3d6000fd5b505050506040513d601f19601f820116820180604052508101906108889190612668565b90506000600754905080838761089e9190612695565b6108a89190612706565b94508082876108b79190612695565b6108c19190612706565b93506000851180156108d35750600084115b610912576040517f08c379a000000000000000000000000000000000000000000000000000000000815260040161090990612783565b60405180910390fd5b61091c3387611c24565b61093c858461092b91906127a3565b858461093791906127a3565b611c8c565b7f000000000000000000000000000000000000000000000000000000000000000073ffffffffffffffffffffffffffffffffffffffff1663a9059cbb33876040518363ffffffff1660e01b81526004016109979291906127d7565b6020604051808303816000875af11580156109b6573d6000803e3d6000fd5b505050506040513d601f19601f820116820180604052508101906109da919061282c565b507f000000000000000000000000000000000000000000000000000000000000000073ffffffffffffffffffffffffffffffffffffffff1663a9059cbb33866040518363ffffffff1660e01b8152600401610a369291906127d7565b6020604051808303816000875af1158015610a55573d6000803e3d6000fd5b505050506040513d601f19601f82011682018060405250810190610a79919061282c565b503373ffffffffffffffffffffffffffffffffffffffff167fcb69be6f06914cd72d42e18a286e6ea41d64fa0e34ba87c4002d28c4c493522a87604051610ac09190612301565b60405180910390a2505050915091565b60007f000000000000000000000000000000000000000000000000000000000000000073ffffffffffffffffffffffffffffffffffffffff166323b872dd3330866040518463ffffffff1660e01b8152600401610b2f93929190612859565b6020604051808303816000875af1158015610b4e573d6000803e3d6000fd5b505050506040513d601f19601f82011682018060405250810190610b72919061282c565b610bb1576040517f08c379a0000000000000000000000000000000000000000000000000000000008152600401610ba8906128dc565b60405180910390fd5b7f000000000000000000000000000000000000000000000000000000000000000073ffffffffffffffffffffffffffffffffffffffff166323b872dd3330856040518463ffffffff1660e01b8152600401610c0e93929190612859565b6020604051808303816000875af1158015610c2d573d6000803e3d6000fd5b505050506040513d601f19601f82011682018060405250810190610c51919061282c565b610c90576040517f08c379a0000000000000000000000000000000000000000000000000000000008152600401610c87906128dc565b60405180910390fd5b600080610c9b61050c565b915091506000821180610cae5750600081115b15610eb657610cc68186611c9e90919063ffffffff16565b610cf4610cdc8388611c9e90919063ffffffff16565b610cef8588611c9e90919063ffffffff16565b611cb4565b03610dd9576000610d2083610d128489611c9e90919063ffffffff16565b611ccd90919063ffffffff16565b90507f000000000000000000000000000000000000000000000000000000000000000073ffffffffffffffffffffffffffffffffffffffff1663a9059cbb33610d728489611ce390919063ffffffff16565b6040518363ffffffff1660e01b8152600401610d8f9291906127d7565b6020604051808303816000875af1158015610dae573d6000803e3d6000fd5b505050506040513d601f19601f82011682018060405250810190610dd2919061282c565b5050610eb5565b6000610e0082610df28588611c9e90919063ffffffff16565b611ccd90919063ffffffff16565b90507f000000000000000000000000000000000000000000000000000000000000000073ffffffffffffffffffffffffffffffffffffffff1663a9059cbb33610e52848a611ce390919063ffffffff16565b6040518363ffffffff1660e01b8152600401610e6f9291906127d7565b6020604051808303816000875af1158015610e8e573d6000803e3d6000fd5b505050506040513d601f19601f82011682018060405250810190610eb2919061282c565b50505b5b6000600754905060008103610ee057610ed98587610ed49190612695565b611cf9565b9350610f19565b610f16838288610ef09190612695565b610efa9190612706565b838388610f079190612695565b610f119190612706565b611cb4565b93505b60008411610f5c576040517f08c379a0000000000000000000000000000000000000000000000000000000008152600401610f5390612948565b60405180910390fd5b610f663385611d73565b6110a27f000000000000000000000000000000000000000000000000000000000000000073ffffffffffffffffffffffffffffffffffffffff166370a08231306040518263ffffffff1660e01b8152600401610fc29190612638565b602060405180830381865afa158015610fdf573d6000803e3d6000fd5b505050506040513d601f19601f820116820180604052508101906110039190612668565b7f000000000000000000000000000000000000000000000000000000000000000073ffffffffffffffffffffffffffffffffffffffff166370a08231306040518263ffffffff1660e01b815260040161105c9190612638565b602060405180830381865afa158015611079573d6000803e3d6000fd5b505050506040513d601f19601f8201168201806040525081019061109d9190612668565b611c8c565b3373ffffffffffffffffffffffffffffffffffffffff167f9ce434f8c25ca029d1f79dd217b13223ff3c5eddc4bed0a34d004f56a854df7f856040516110e89190612301565b60405180910390a250505092915050565b60007f000000000000000000000000000000000000000000000000000000000000000073ffffffffffffffffffffffffffffffffffffffff168373ffffffffffffffffffffffffffffffffffffffff1614806111a057507f000000000000000000000000000000000000000000000000000000000000000073ffffffffffffffffffffffffffffffffffffffff168373ffffffffffffffffffffffffffffffffffffffff16145b6111df576040517f08c379a00000000000000000000000000000000000000000000000000000000081526004016111d6906129b4565b60405180910390fd5b60007f000000000000000000000000000000000000000000000000000000000000000073ffffffffffffffffffffffffffffffffffffffff168473ffffffffffffffffffffffffffffffffffffffff1614905060008061123d61050c565b9150915060008060008086611295577f00000000000000000000000000000000000000000000000000000000000000007f000000000000000000000000000000000000000000000000000000000000000086886112da565b7f00000000000000000000000000000000000000000000000000000000000000007f000000000000000000000000000000000000000000000000000000000000000087875b935093509350935060008911611325576040517f08c379a000000000000000000000000000000000000000000000000000000000815260040161131c90612a20565b60405180910390fd5b8373ffffffffffffffffffffffffffffffffffffffff166323b872dd33308c6040518463ffffffff1660e01b815260040161136293929190612859565b6020604051808303816000875af1158015611381573d6000803e3d6000fd5b505050506040513d601f19601f820116820180604052508101906113a5919061282c565b5060006103e86103e58b6113b99190612695565b6113c39190612706565b905080836113d19190612589565b81836113dd9190612695565b6113e79190612706565b985081891061142b576040517f08c379a000000000000000000000000000000000000000000000000000000000815260040161142290612a8c565b60405180910390fd5b8373ffffffffffffffffffffffffffffffffffffffff1663a9059cbb338b6040518363ffffffff1660e01b81526004016114669291906127d7565b6020604051808303816000875af1158015611485573d6000803e3d6000fd5b505050506040513d601f19601f820116820180604052508101906114a9919061282c565b506115e67f000000000000000000000000000000000000000000000000000000000000000073ffffffffffffffffffffffffffffffffffffffff166370a08231306040518263ffffffff1660e01b81526004016115069190612638565b602060405180830381865afa158015611523573d6000803e3d6000fd5b505050506040513d601f19601f820116820180604052508101906115479190612668565b7f000000000000000000000000000000000000000000000000000000000000000073ffffffffffffffffffffffffffffffffffffffff166370a08231306040518263ffffffff1660e01b81526004016115a09190612638565b602060405180830381865afa1580156115bd573d6000803e3d6000fd5b505050506040513d601f19601f820116820180604052508101906115e19190612668565b611c8c565b505050505050505092915050565b6000806115ff611751565b9050600061160d82866116ca565b905083811015611652576040517f08c379a000000000000000000000000000000000000000000000000000000000815260040161164990612b1e565b60405180910390fd5b61165f8286868403611759565b60019250505092915050565b600080611676611751565b90506116838185856119ae565b600191505092915050565b60086020528060005260406000206000915090505481565b7f000000000000000000000000000000000000000000000000000000000000000081565b6000600160008473ffffffffffffffffffffffffffffffffffffffff1673ffffffffffffffffffffffffffffffffffffffff16815260200190815260200160002060008373ffffffffffffffffffffffffffffffffffffffff1673ffffffffffffffffffffffffffffffffffffffff16815260200190815260200160002054905092915050565b600033905090565b600073ffffffffffffffffffffffffffffffffffffffff168373ffffffffffffffffffffffffffffffffffffffff16036117c8576040517f08c379a00000000000000000000000000000000000000000000000000000000081526004016117bf90612bb0565b60405180910390fd5b600073ffffffffffffffffffffffffffffffffffffffff168273ffffffffffffffffffffffffffffffffffffffff1603611837576040517f08c379a000000000000000000000000000000000000000000000000000000000815260040161182e90612c42565b60405180910390fd5b80600160008573ffffffffffffffffffffffffffffffffffffffff1673ffffffffffffffffffffffffffffffffffffffff16815260200190815260200160002060008473ffffffffffffffffffffffffffffffffffffffff1673ffffffffffffffffffffffffffffffffffffffff168152602001908152602001600020819055508173ffffffffffffffffffffffffffffffffffffffff168373ffffffffffffffffffffffffffffffffffffffff167f8c5be1e5ebec7d5bd14f71427d1e84f3dd0314c0f7b2291e5b200ac8c7c3b925836040516119159190612301565b60405180910390a3505050565b600061192e84846116ca565b90507fffffffffffffffffffffffffffffffffffffffffffffffffffffffffffffffff81146119a8578181101561199a576040517f08c379a000000000000000000000000000000000000000000000000000000000815260040161199190612cae565b60405180910390fd5b6119a78484848403611759565b5b50505050565b600073ffffffffffffffffffffffffffffffffffffffff168373ffffffffffffffffffffffffffffffffffffffff1603611a1d576040517f08c379a0000000000000000000000000000000000000000000000000000000008152600401611a1490612d40565b60405180910390fd5b600073ffffffffffffffffffffffffffffffffffffffff168273ffffffffffffffffffffffffffffffffffffffff1603611a8c576040517f08c379a0000000000000000000000000000000000000000000000000000000008152600401611a8390612dd2565b60405180910390fd5b611a97838383611ddb565b60008060008573ffffffffffffffffffffffffffffffffffffffff1673ffffffffffffffffffffffffffffffffffffffff16815260200190815260200160002054905081811015611b1d576040517f08c379a0000000000000000000000000000000000000000000000000000000008152600401611b1490612e64565b60405180910390fd5b8181036000808673ffffffffffffffffffffffffffffffffffffffff1673ffffffffffffffffffffffffffffffffffffffff16815260200190815260200160002081905550816000808573ffffffffffffffffffffffffffffffffffffffff1673ffffffffffffffffffffffffffffffffffffffff168152602001908152602001600020600082825401925050819055508273ffffffffffffffffffffffffffffffffffffffff168473ffffffffffffffffffffffffffffffffffffffff167fddf252ad1be2c89b69c2b068fc378daa952ba7f163c4a11628f55a4df523b3ef84604051611c0b9190612301565b60405180910390a3611c1e848484611de0565b50505050565b611c2e8282611de5565b611c37826105ef565b600860008473ffffffffffffffffffffffffffffffffffffffff1673ffffffffffffffffffffffffffffffffffffffff16815260200190815260200160002081905550611c82610546565b6007819055505050565b81600581905550806006819055505050565b60008183611cac9190612695565b905092915050565b6000818310611cc35781611cc5565b825b905092915050565b60008183611cdb9190612706565b905092915050565b60008183611cf191906127a3565b905092915050565b60006003821115611d605781905060006001600284611d189190612706565b611d229190612589565b90505b81811015611d5a578091506002818285611d3f9190612706565b611d499190612589565b611d539190612706565b9050611d25565b50611d6e565b60008214611d6d57600190505b5b919050565b611d7d8282611fb2565b611d86826105ef565b600860008473ffffffffffffffffffffffffffffffffffffffff1673ffffffffffffffffffffffffffffffffffffffff16815260200190815260200160002081905550611dd1610546565b6007819055505050565b505050565b505050565b600073ffffffffffffffffffffffffffffffffffffffff168273ffffffffffffffffffffffffffffffffffffffff1603611e54576040517f08c379a0000000000000000000000000000000000000000000000000000000008152600401611e4b90612ef6565b60405180910390fd5b611e6082600083611ddb565b60008060008473ffffffffffffffffffffffffffffffffffffffff1673ffffffffffffffffffffffffffffffffffffffff16815260200190815260200160002054905081811015611ee6576040517f08c379a0000000000000000000000000000000000000000000000000000000008152600401611edd90612f88565b60405180910390fd5b8181036000808573ffffffffffffffffffffffffffffffffffffffff1673ffffffffffffffffffffffffffffffffffffffff1681526020019081526020016000208190555081600260008282540392505081905550600073ffffffffffffffffffffffffffffffffffffffff168373ffffffffffffffffffffffffffffffffffffffff167fddf252ad1be2c89b69c2b068fc378daa952ba7f163c4a11628f55a4df523b3ef84604051611f999190612301565b60405180910390a3611fad83600084611de0565b505050565b600073ffffffffffffffffffffffffffffffffffffffff168273ffffffffffffffffffffffffffffffffffffffff1603612021576040517f08c379a000000000000000000000000000000000000000000000000000000000815260040161201890612ff4565b60405180910390fd5b61202d60008383611ddb565b806002600082825461203f9190612589565b92505081905550806000808473ffffffffffffffffffffffffffffffffffffffff1673ffffffffffffffffffffffffffffffffffffffff168152602001908152602001600020600082825401925050819055508173ffffffffffffffffffffffffffffffffffffffff16600073ffffffffffffffffffffffffffffffffffffffff167fddf252ad1be2c89b69c2b068fc378daa952ba7f163c4a11628f55a4df523b3ef836040516120f09190612301565b60405180910390a361210460008383611de0565b5050565b600081519050919050565b600082825260208201905092915050565b60005b83811015612142578082015181840152602081019050612127565b60008484015250505050565b6000601f19601f8301169050919050565b600061216a82612108565b6121748185612113565b9350612184818560208601612124565b61218d8161214e565b840191505092915050565b600060208201905081810360008301526121b2818461215f565b905092915050565b6000819050919050565b6121cd816121ba565b82525050565b60006040820190506121e860008301856121c4565b6121f560208301846121c4565b9392505050565b600080fd5b600073ffffffffffffffffffffffffffffffffffffffff82169050919050565b600061222c82612201565b9050919050565b61223c81612221565b811461224757600080fd5b50565b60008135905061225981612233565b92915050565b612268816121ba565b811461227357600080fd5b50565b6000813590506122858161225f565b92915050565b600080604083850312156122a2576122a16121fc565b5b60006122b08582860161224a565b92505060206122c185828601612276565b9150509250929050565b60008115159050919050565b6122e0816122cb565b82525050565b60006020820190506122fb60008301846122d7565b92915050565b600060208201905061231660008301846121c4565b92915050565b600080600060608486031215612335576123346121fc565b5b60006123438682870161224a565b93505060206123548682870161224a565b925050604061236586828701612276565b9150509250925092565b6000819050919050565b600061239461238f61238a84612201565b61236f565b612201565b9050919050565b60006123a682612379565b9050919050565b60006123b88261239b565b9050919050565b6123c8816123ad565b82525050565b60006020820190506123e360008301846123bf565b92915050565b600060ff82169050919050565b6123ff816123e9565b82525050565b600060208201905061241a60008301846123f6565b92915050565b600060208284031215612436576124356121fc565b5b60006124448482850161224a565b91505092915050565b600060208284031215612463576124626121fc565b5b600061247184828501612276565b91505092915050565b60008060408385031215612491576124906121fc565b5b600061249f85828601612276565b92505060206124b085828601612276565b9150509250929050565b600080604083850312156124d1576124d06121fc565b5b60006124df8582860161224a565b92505060206124f08582860161224a565b9150509250929050565b7f4e487b7100000000000000000000000000000000000000000000000000000000600052602260045260246000fd5b6000600282049050600182168061254157607f821691505b602082108103612554576125536124fa565b5b50919050565b7f4e487b7100000000000000000000000000000000000000000000000000000000600052601160045260246000fd5b6000612594826121ba565b915061259f836121ba565b92508282019050808211156125b7576125b661255a565b5b92915050565b7f496e73756666696369656e74206c697175696469747920736861726573000000600082015250565b60006125f3601d83612113565b91506125fe826125bd565b602082019050919050565b60006020820190508181036000830152612622816125e6565b9050919050565b61263281612221565b82525050565b600060208201905061264d6000830184612629565b92915050565b6000815190506126628161225f565b92915050565b60006020828403121561267e5761267d6121fc565b5b600061268c84828501612653565b91505092915050565b60006126a0826121ba565b91506126ab836121ba565b92508282026126b9816121ba565b915082820484148315176126d0576126cf61255a565b5b5092915050565b7f4e487b7100000000000000000000000000000000000000000000000000000000600052601260045260246000fd5b6000612711826121ba565b915061271c836121ba565b92508261272c5761272b6126d7565b5b828204905092915050565b7f496e73756666696369656e74207472616e7366657220616d6f756e7473000000600082015250565b600061276d601d83612113565b915061277882612737565b602082019050919050565b6000602082019050818103600083015261279c81612760565b9050919050565b60006127ae826121ba565b91506127b9836121ba565b92508282039050818111156127d1576127d061255a565b5b92915050565b60006040820190506127ec6000830185612629565b6127f960208301846121c4565b9392505050565b612809816122cb565b811461281457600080fd5b50565b60008151905061282681612800565b92915050565b600060208284031215612842576128416121fc565b5b600061285084828501612817565b91505092915050565b600060608201905061286e6000830186612629565b61287b6020830185612629565b61288860408301846121c4565b949350505050565b7f546f6b656e205472616e73666572204661696c65640000000000000000000000600082015250565b60006128c6601583612113565b91506128d182612890565b602082019050919050565b600060208201905081810360008301526128f5816128b9565b9050919050565b7f4e6f204c697175696469747920536861726573204d696e746564000000000000600082015250565b6000612932601a83612113565b915061293d826128fc565b602082019050919050565b6000602082019050818103600083015261296181612925565b9050919050565b7f496e76616c696420546f6b656e20416464726573730000000000000000000000600082015250565b600061299e601583612113565b91506129a982612968565b602082019050919050565b600060208201905081810360008301526129cd81612991565b9050919050565b7f496e73756666696369656e7420416d6f756e7400000000000000000000000000600082015250565b6000612a0a601383612113565b9150612a15826129d4565b602082019050919050565b60006020820190508181036000830152612a39816129fd565b9050919050565b7f496e73756666696369656e74204c697175696469747900000000000000000000600082015250565b6000612a76601683612113565b9150612a8182612a40565b602082019050919050565b60006020820190508181036000830152612aa581612a69565b9050919050565b7f45524332303a2064656372656173656420616c6c6f77616e63652062656c6f7760008201527f207a65726f000000000000000000000000000000000000000000000000000000602082015250565b6000612b08602583612113565b9150612b1382612aac565b604082019050919050565b60006020820190508181036000830152612b3781612afb565b9050919050565b7f45524332303a20617070726f76652066726f6d20746865207a65726f2061646460008201527f7265737300000000000000000000000000000000000000000000000000000000602082015250565b6000612b9a602483612113565b9150612ba582612b3e565b604082019050919050565b60006020820190508181036000830152612bc981612b8d565b9050919050565b7f45524332303a20617070726f766520746f20746865207a65726f20616464726560008201527f7373000000000000000000000000000000000000000000000000000000000000602082015250565b6000612c2c602283612113565b9150612c3782612bd0565b604082019050919050565b60006020820190508181036000830152612c5b81612c1f565b9050919050565b7f45524332303a20696e73756666696369656e7420616c6c6f77616e6365000000600082015250565b6000612c98601d83612113565b9150612ca382612c62565b602082019050919050565b60006020820190508181036000830152612cc781612c8b565b9050919050565b7f45524332303a207472616e736665722066726f6d20746865207a65726f20616460008201527f6472657373000000000000000000000000000000000000000000000000000000602082015250565b6000612d2a602583612113565b9150612d3582612cce565b604082019050919050565b60006020820190508181036000830152612d5981612d1d565b9050919050565b7f45524332303a207472616e7366657220746f20746865207a65726f206164647260008201527f6573730000000000000000000000000000000000000000000000000000000000602082015250565b6000612dbc602383612113565b9150612dc782612d60565b604082019050919050565b60006020820190508181036000830152612deb81612daf565b9050919050565b7f45524332303a207472616e7366657220616d6f756e742065786365656473206260008201527f616c616e63650000000000000000000000000000000000000000000000000000602082015250565b6000612e4e602683612113565b9150612e5982612df2565b604082019050919050565b60006020820190508181036000830152612e7d81612e41565b9050919050565b7f45524332303a206275726e2066726f6d20746865207a65726f2061646472657360008201527f7300000000000000000000000000000000000000000000000000000000000000602082015250565b6000612ee0602183612113565b9150612eeb82612e84565b604082019050919050565b60006020820190508181036000830152612f0f81612ed3565b9050919050565b7f45524332303a206275726e20616d6f756e7420657863656564732062616c616e60008201527f6365000000000000000000000000000000000000000000000000000000000000602082015250565b6000612f72602283612113565b9150612f7d82612f16565b604082019050919050565b60006020820190508181036000830152612fa181612f65565b9050919050565b7f45524332303a206d696e7420746f20746865207a65726f206164647265737300600082015250565b6000612fde601f83612113565b9150612fe982612fa8565b602082019050919050565b6000602082019050818103600083015261300d81612fd1565b905091905056fea2646970667358221220a620016b45a7af83e41e655c23866789751e536ba9150186f2167abd9f931fd664736f6c63430008130033",
  "immutableReferences": {
    "1458": [
      {
        "length": 32,
        "start": 1874
      },
      {
        "length": 32,
        "start": 2366
      },
      {
        "length": 32,
        "start": 2772
      },
      {
        "length": 32,
        "start": 3588
      },
      {
        "length": 32,
        "start": 3947
      },
      {
        "length": 32,
        "start": 4349
      },
      {
        "length": 32,
        "start": 4579
      },
      {
        "length": 32,
        "start": 4719
      },
      {
        "length": 32,
        "start": 4759
      },
      {
        "length": 32,
        "start": 5295
      },
      {
        "length": 32,
        "start": 5800
      }
    ],
    "1461": [
      {
        "length": 32,
        "start": 1409
      },
      {
        "length": 32,
        "start": 2032
      },
      {
        "length": 32,
        "start": 2525
      },
      {
        "length": 32,
        "start": 2995
      },
      {
        "length": 32,
        "start": 3364
      },
      {
        "length": 32,
        "start": 4101
      },
      {
        "length": 32,
        "start": 4434
      },
      {
        "length": 32,
        "start": 4686
      },
      {
        "length": 32,
        "start": 4792
      },
      {
        "length": 32,
        "start": 5449
      }
    ]
  },
  "source": "// SPDX-License-Identifier: MIT\r\n\r\npragma solidity ^0.8.19;\r\n\r\nimport \"@openzeppelin/contracts/token/ERC20/ERC20.sol\";\r\nimport \"@openzeppelin/contracts/utils/math/SafeMath.sol\";\r\n\r\ncontract LiquidityPool is ERC20 {\r\n  using SafeMath for uint256;\r\n  //    \r\n  // ERC20 token state variables\r\n  ERC20 public immutable token1;\r\n  ERC20 public immutable token2;\r\n  // State variables for token reserves\r\n  uint256 public reserve1;\r\n  uint256 public reserve2;\r\n  // State variables for liquidity shares\r\n  uint256 public totalLiquidity;\r\n  mapping(address => uint256) public userLiquidity;\r\n\r\n  // Events\r\n  event MintLpToken(address indexed _liquidityProvider, uint256 _sharesMinted);\r\n\r\n  event BurnLpToken(address indexed _liquidityProvider, uint256 _sharesBurned);\r\n\r\n  constructor(\r\n    string memory _name,\r\n    string memory _symbol,\r\n    address _token1,\r\n    address _token2\r\n  ) ERC20(_name, _symbol) {\r\n    // ERC20(_name,_symbol) ?\r\n    token1 = ERC20(_token1);\r\n    token2 = ERC20(_token2);\r\n  }\r\n\r\n  // Function to get reserves\r\n  function getReserves()\r\n    public\r\n    view\r\n    returns (uint256 _reserve1, uint256 _reserve2)\r\n  {\r\n    _reserve1 = reserve1;\r\n    _reserve2 = reserve2;\r\n  }\r\n\r\n  //        \r\n  //   \r\n  // reserve\r\n\r\n  // Internal function to mint liquidity shares\r\n  // lp _to lp   \r\n  // Internal function to mint liquidity shares\r\n  function mint(address _to, uint256 _amount) private {\r\n    _mint(_to, _amount);\r\n    //  ?\r\n    userLiquidity[_to] = balanceOf(_to);\r\n    totalLiquidity = totalSupply();\r\n  }\r\n\r\n  // function _mint(address _to, uint256 _amount) private {\r\n  //   userLiquidity[_to] = balanceOf(_to);\r\n  //   totalLiquidity += _amount;\r\n  // }\r\n\r\n  // Internal function to burn liquidity shares\r\n  function burn(address _from, uint256 _amount) private {\r\n    _burn(_from, _amount);\r\n    userLiquidity[_from] = balanceOf(_from);\r\n    totalLiquidity = totalSupply();\r\n  }\r\n\r\n  // function _burn(address _from, uint256 _amount) private {\r\n  //   userLiquidity[_from] -= _amount;\r\n  //   totalLiquidity -= _amount;\r\n  // }\r\n\r\n  // Internal function to update liquidity pool reserves\r\n  function _update(uint256 _reserve1, uint256 _reserve2) private {\r\n    reserve1 = _reserve1;\r\n    reserve2 = _reserve2;\r\n  }\r\n\r\n  //     \r\n\r\n  // Function for user to swap tokens\r\n  // NOTE: Could possibly make this into 2 functions for gas saving\r\n  function swapTokens(\r\n    address _tokenIn,\r\n    uint256 _amountIn\r\n  ) external returns (uint256 _amountOut) {\r\n    //_tokenIn erc20 _amountIn ERC20  \r\n    require(\r\n      _tokenIn == address(token1) || _tokenIn == address(token2),\r\n      \"Invalid Token Address\"\r\n    );\r\n    // tokenIn address(token1 token2  )\r\n\r\n    // Retrieve the \"token in\" token\r\n    bool isToken1 = _tokenIn == address(token1);\r\n    // _tokenIn token1      .\r\n\r\n    (uint256 _reserve1, uint256 _reserve2) = getReserves();\r\n    //  getReserves()  ,     _reserve1 _reserve2   .\r\n    // _reserve1 _reserve2            .\r\n\r\n    (\r\n      ERC20 tokenIn,\r\n      ERC20 tokenOut,\r\n      uint256 reserveIn,\r\n      uint256 reserveOut\r\n    ) = isToken1\r\n        ? (token1, token2, _reserve1, _reserve2)\r\n        : (token2, token1, _reserve2, _reserve1);\r\n\r\n    //   , isToken1 true tokenIn token1, tokenOut token2, reserveIn _reserve1, reserveOut _reserve2 . isToken1 false   .\r\n    //       . tokenIn tokenOut     , reserveIn reserveOut      .\r\n\r\n    // Transfer tokenIn to the liquity pool\r\n    require(_amountIn > 0, \"Insufficient Amount\");\r\n    //_amountIn  \r\n\r\n    tokenIn.transferFrom(msg.sender, address(this), _amountIn);\r\n    //tokenIn IERC20      ,\r\n    //         \r\n    //msg.sender  _amountIn tokenIn   .\r\n\r\n    // Calculate tokenIn with fee of 0.3%\r\n    uint256 _amountInWithFee = (_amountIn * 997) / 1000;\r\n    // _amountInWithFee      ,      ,      \r\n\r\n    /*\r\n        Calculate tokenOut amount using x * y = k\r\n        > (x + dx) * (y + dy) = k`\r\n        > y - dy = (xy) / (x + dx)\r\n        > dy = y - ((xy) / (x + dx))\r\n        > dy = y * (1 - (x / (x + dx)))\r\n        > dy = y * (((x + dx) / (x + dx)) - (x / (x + dx)))\r\n        > dy = y * (dx / (x + dx))\r\n        ~~~ dy = (y * dx) / (x + dx) ~~~\r\n        */\r\n    //      \r\n\r\n    _amountOut =\r\n      (reserveOut * _amountInWithFee) /\r\n      (reserveIn + _amountInWithFee);\r\n\r\n    require(_amountOut < reserveOut, \"Insufficient Liquidity\");\r\n    //        ,   tokenOut  \r\n\r\n    // Transfer tokenOut to the user\r\n    tokenOut.transfer(msg.sender, _amountOut);\r\n\r\n    // Update the reserves\r\n    _update(token1.balanceOf(address(this)), token2.balanceOf(address(this)));\r\n  }\r\n\r\n  // Function for user to add liquidity\r\n  function addLiquidity(\r\n    uint256 _amountToken1,\r\n    uint256 _amountToken2\r\n  ) external returns (uint256 _liquidityShares) {\r\n    // User sends both tokens to liquidity pool\r\n    require(\r\n      token1.transferFrom(msg.sender, address(this), _amountToken1),\r\n      \"Token Transfer Failed\"\r\n    );\r\n    require(\r\n      token2.transferFrom(msg.sender, address(this), _amountToken2),\r\n      \"Token Transfer Failed\"\r\n    );\r\n    /*\r\n        Check if the ratio of tokens supplied is proportional\r\n        to reserve ratio to satisfy x * y = k for price to not\r\n        change if both reserves are greater than 0\r\n        */\r\n    (uint256 _reserve1, uint256 _reserve2) = getReserves();\r\n    //getReserves\"   \"_reserve1\"  \"_reserve2\"       uint256    \r\n\r\n    if (_reserve1 > 0 || _reserve2 > 0) {\r\n      if (\r\n        min(_amountToken1.mul(_reserve2), _amountToken2.mul(_reserve1)) ==\r\n        _amountToken1.mul(_reserve2)\r\n      ) {\r\n        uint amountToken2 = _amountToken1.mul(_reserve2).div(_reserve1);\r\n        token2.transfer(msg.sender, _amountToken2.sub(amountToken2));\r\n      } else {\r\n        uint amountToken1 = _amountToken2.mul(_reserve1).div(_reserve2);\r\n        token1.transfer(msg.sender, _amountToken1.sub(amountToken1));\r\n      }\r\n    }\r\n\r\n    /*\r\n        Calculate number of liquidity shares to mint using\r\n        the geometric mean as a measure of liquidity. Increase\r\n        in liquidity is proportional to increase in shares\r\n        minted.\r\n        > S = (dx / x) * TL\r\n        > S = (dy / y) * TL\r\n        NOTE: Amount of liquidity shares minted formula is similar\r\n        to Uniswap V2 formula. For minting liquidity shares, we take\r\n        the minimum of the two values calculated to incentivize depositing\r\n        balanced liquidity.\r\n        */\r\n    uint256 _totalLiquidity = totalLiquidity;\r\n    //_totalLiquidity\"            .\r\n\r\n    //liquidityShares\"   \r\n\r\n    if (_totalLiquidity == 0) {\r\n      _liquidityShares = sqrt(_amountToken1 * _amountToken2);\r\n    } else {\r\n      _liquidityShares = min(\r\n        ((_amountToken1 * _totalLiquidity) / _reserve1),\r\n        ((_amountToken2 * _totalLiquidity) / _reserve2)\r\n      );\r\n      //  \"min\"         \"liquidityShares\"  .\r\n      //  ,          \r\n    }\r\n\r\n    require(_liquidityShares > 0, \"No Liquidity Shares Minted\");\r\n    // Mint shares to user\r\n    mint(msg.sender, _liquidityShares);\r\n    //mint\"      ,    ERC-20    \r\n\r\n    // Update the reserves\r\n    _update(token1.balanceOf(address(this)), token2.balanceOf(address(this)));\r\n\r\n    emit MintLpToken(msg.sender, _liquidityShares);\r\n  }\r\n\r\n  /*\r\n    Function for user to remove liquidity\r\n    > dx = (S / TL) * x\r\n    > dy = (S / TL) * y\r\n    */\r\n  function removeLiquidity(\r\n    uint256 _liquidityShares\r\n  ) external returns (uint256 _amountToken1, uint256 _amountToken2) {\r\n    require(\r\n      userLiquidity[msg.sender] >= _liquidityShares,\r\n      \"Insufficient liquidity shares\"\r\n    );\r\n    // Get balance of both tokens\r\n    uint256 token1Balance = token1.balanceOf(address(this));\r\n    uint256 token2Balance = token2.balanceOf(address(this));\r\n    // \"token1\" \"token2\"   , \"token1Balance\"  \"token2Balance\"   \r\n\r\n    uint256 _totalLiquidity = totalLiquidity;\r\n\r\n    _amountToken1 = (_liquidityShares * token1Balance) / _totalLiquidity;\r\n    _amountToken2 = (_liquidityShares * token2Balance) / _totalLiquidity;\r\n    // /     (\"_liquidityShares\") , \"token1\"    (\"_amountToken1\")  \r\n    // ,  \"token1\"  (\"token1Balance\")     \"token1\"   (\"_totalLiquidity\")  \"_liquidityShares\"   \"token1\"   (\"_amountToken1\") \r\n\r\n    require(\r\n      _amountToken1 > 0 && _amountToken2 > 0,\r\n      \"Insufficient transfer amounts\"\r\n    );\r\n\r\n    // Burn user liquidity shares\r\n    burn(msg.sender, _liquidityShares);\r\n\r\n    // Update reserves\r\n    _update(token1Balance - _amountToken1, token2Balance - _amountToken2);\r\n    //\"token1\" \"token2\"    , \"_update\"         \r\n\r\n    // Transfer tokens to user\r\n    token1.transfer(msg.sender, _amountToken1);\r\n    token2.transfer(msg.sender, _amountToken2);\r\n\r\n    emit BurnLpToken(msg.sender, _liquidityShares);\r\n  }\r\n\r\n  // Internal function to square root a value from Uniswap V2\r\n  // uint256   \r\n\r\n  function sqrt(uint256 y) internal pure returns (uint256 z) {\r\n    if (y > 3) {\r\n      z = y;\r\n      uint256 x = y / 2 + 1;\r\n      while (x < z) {\r\n        z = x;\r\n        x = (y / x + x) / 2;\r\n      }\r\n    } else if (y != 0) {\r\n      z = 1;\r\n    }\r\n  }\r\n\r\n  // Internal function to find minimum value from Uniswap V2\r\n  function min(uint256 x, uint256 y) internal pure returns (uint256 z) {\r\n    z = x < y ? x : y;\r\n  }\r\n}\r\n",
  "sourcePath": "C:\\Users\\\\Desktop\\\\SolarProject\\firstSolar\\back\\test\\contracts\\LiqudityPool.sol",
  "compiler": {
    "name": "solc",
    "version": "0.8.19+commit.7dd6d404.Emscripten.clang"
  },
  "schemaVersion": "3.4.13",
  "updatedAt": "2023-04-13T13:30:39.599Z",
  "devdoc": {
    "events": {
      "Approval(address,address,uint256)": {
        "details": "Emitted when the allowance of a `spender` for an `owner` is set by a call to {approve}. `value` is the new allowance."
      },
      "Transfer(address,address,uint256)": {
        "details": "Emitted when `value` tokens are moved from one account (`from`) to another (`to`). Note that `value` may be zero."
      }
    },
    "kind": "dev",
    "methods": {
      "allowance(address,address)": {
        "details": "See {IERC20-allowance}."
      },
      "approve(address,uint256)": {
        "details": "See {IERC20-approve}. NOTE: If `amount` is the maximum `uint256`, the allowance is not updated on `transferFrom`. This is semantically equivalent to an infinite approval. Requirements: - `spender` cannot be the zero address."
      },
      "balanceOf(address)": {
        "details": "See {IERC20-balanceOf}."
      },
      "decimals()": {
        "details": "Returns the number of decimals used to get its user representation. For example, if `decimals` equals `2`, a balance of `505` tokens should be displayed to a user as `5.05` (`505 / 10 ** 2`). Tokens usually opt for a value of 18, imitating the relationship between Ether and Wei. This is the value {ERC20} uses, unless this function is overridden; NOTE: This information is only used for _display_ purposes: it in no way affects any of the arithmetic of the contract, including {IERC20-balanceOf} and {IERC20-transfer}."
      },
      "decreaseAllowance(address,uint256)": {
        "details": "Atomically decreases the allowance granted to `spender` by the caller. This is an alternative to {approve} that can be used as a mitigation for problems described in {IERC20-approve}. Emits an {Approval} event indicating the updated allowance. Requirements: - `spender` cannot be the zero address. - `spender` must have allowance for the caller of at least `subtractedValue`."
      },
      "increaseAllowance(address,uint256)": {
        "details": "Atomically increases the allowance granted to `spender` by the caller. This is an alternative to {approve} that can be used as a mitigation for problems described in {IERC20-approve}. Emits an {Approval} event indicating the updated allowance. Requirements: - `spender` cannot be the zero address."
      },
      "name()": {
        "details": "Returns the name of the token."
      },
      "symbol()": {
        "details": "Returns the symbol of the token, usually a shorter version of the name."
      },
      "totalSupply()": {
        "details": "See {IERC20-totalSupply}."
      },
      "transfer(address,uint256)": {
        "details": "See {IERC20-transfer}. Requirements: - `to` cannot be the zero address. - the caller must have a balance of at least `amount`."
      },
      "transferFrom(address,address,uint256)": {
        "details": "See {IERC20-transferFrom}. Emits an {Approval} event indicating the updated allowance. This is not required by the EIP. See the note at the beginning of {ERC20}. NOTE: Does not update the allowance if the current allowance is the maximum `uint256`. Requirements: - `from` and `to` cannot be the zero address. - `from` must have a balance of at least `amount`. - the caller must have allowance for ``from``'s tokens of at least `amount`."
      }
    },
    "version": 1
  },
  "userdoc": {
    "kind": "user",
    "methods": {},
    "version": 1
  }
}